:020000040800F2
:10000000E0370024D10300080B6C00089767000854
:10001000096C0008451A0008759C000800000000E3
:10002000000000000000000000000000CB7000088D
:10003000C11B000800000000876D0008D770000891
:10004000EB030008EB030008EB030008EB030008D8
:10005000EB030008EB030008EB030008EB030008C8
:10006000EB030008EB030008EB030008EB030008B8
:10007000EB030008EB030008EB030008EB030008A8
:10008000EB030008EB030008EB030008EB03000898
:10009000EB030008EB030008EB030008EB03000888
:1000A000EB030008EB030008EB030008EB03000878
:1000B000EB030008EB030008EB030008EB03000868
:1000C000EB030008EB030008EB030008EB03000858
:1000D000EB03000899800008A5800008B1800008A3
:1000E000EB030008EB03000800000000EB0300082E
:1000F000EB030008EB030008EB030008EB03000828
:10010000EB030008EB030008EB030008EB03000817
:10011000EB030008EB030008EB030008EB03000807
:10012000EB030008EB030008EB030008EB030008F7
:10013000EB030008EB030008EB030008EB030008E7
:1001400000000000000000000000000000000000AF
:10015000EB030008EB030008EB030008EB030008C7
:10016000EB030008EB030008EB030008EB030008B7
:10017000EB0300080D6C0008EB0300080000000012
:10018000EB030008EB030008EB030008EB03000897
:10019000EB030008EB030008EB030008EB03000887
:1001A000EB030008EB030008EB030008000000006D
:1001B000EB030008EB030008EB030008EB03000867
:1001C000EB030008EB030008000000000000000043
:1001D0000000000000000000EB0300080000000029
:1001E000000000000000000000000000000000000F
:1001F0000000000000000000EB030008EB03000813
:10020000EB030008EB03000800000000EB0300080C
:10021000EB030008EB030008EB030008EB03000806
:10022000EB03000800000000EB03000800000000E2
:10023000EB030008EB03000800000000EB030008DC
:10024000EB030008EB030008EB030008EB030008D6
:10025000EB030008EB030008EB030008EB030008C6
:10026000EB030008EB030008EB030008EB030008B6
:10027000EB030008EB030008EB030008000000009C
:10028000EB030008EB030008EB030008EB03000896
:1002900000000000EB030008EB0300080000000072
:1002A00000000000EB030008EB030008EB0300086C
:1002B000EB030008EB030008EB030008EB03000866
:1002C000EB030008EB030008EB03000800F002F862
:1002D00000F06FF80AA090E8000C82448344AAF171
:1002E0000107DA4501D100F064F8AFF2090EBAE86F
:1002F0000F0013F0010F18BFFB1A43F0010318475A
:10030000A0A70000C0A700000A444FF0000C10F89E
:10031000013B13F0070408BF10F8014B1D1108BF83
:1003200010F8015B641E05D010F8016B641E01F823
:10033000016BF9D113F0080F1EBF10F8014BAD1C73
:100340000C1B09D16D1E58BF01F801CBFAD505E091
:1003500014F8016B01F8016B6D1EF9D59142D6D3EB
:10036000704700000023002400250026103A28BF13
:1003700078C1FBD8520728BF30C148BF0B60704717
:10038000662909F0E286642900F00081732900F0F3
:10039000C484002070471FB509F0D2FE00F0C2FCF3
:1003A00004000020002109F0B5FEE0601FBD10B57B
:1003B00010BD00F0B3FD1146FFF7EDFF09F0DAFCC8
:1003C00000F0D1FD03B4FFF7F2FF03BC00F008FE1C
:1003D0000948804709480047FEE7FEE7FEE7FEE7D9
:1003E000FEE7FEE7FEE7FEE7FEE7FEE70448054915
:1003F000054A064B7047000079710008CD020008DD
:10040000E02D0024E0370024E02F0024E02F00241A
:1004100053EA020C00F069802DE9F04B4FF0000622
:10042000002B1FBFB3FA83F503FA05F424FA05F68F
:100430005E4012BF1643B2FA82F502FA05F4C5F126
:1004400020051EBF22FA05FC44EA0C04203556EABA
:10045000044C4FEA144418BF641C4FF000084FF0DE
:100460000009904271EB030C39D3002919BFB1FA8E
:1004700081F701FA07F6B0FA80F700FA07F6C7F13C
:1004800020071EBF20FA07FC46EA0C062037B6FB01
:10049000F4FCA7EB0507103F07F01F0BCBF120067C
:1004A0000CFA0BFB2CFA06F644BFB3460026202FAD
:1004B000A4BF5E464FF0000B5BEA060C08BF4FF08E
:1004C000010B19EB0B09ABFB027C48EB0608C01BC8
:1004D00006FB02CC0BFB03CC71EB0C01C1E70B4616
:1004E000024641464846BDE8F08B13B54FF0000088
:1004F0004FF00001AFF30080BDE81C4070470000E2
:100500000FB47CB50C0009AA009001D02044401E15
:10051000084B7B4469460190089800F0CCFB0546E7
:100520001CB10020694600F0D9FB28467CBC5DF870
:1005300014FB0000D107000070B50C460546012AE7
:1005400005D02878800600D5EA69002302E001235F
:1005500005E05B1C934202D2E05C0028F9D1A86957
:10056000E618C01AA861286A184428622846AFF322
:10057000008004E0D5E9012114F8010B9047B44252
:10058000F8D32846AFF3008070BD00002DE9F0419C
:100590000646002410687529314616A510D0AFF321
:1005A0000080002802DA404213A507E031688A077C
:1005B00001D512A502E0490704D511A5012401E0E7
:1005C000AFF3008000210A2206F1240709E0B0FB06
:1005D000F2FCB0FBF2F302FB1C00303078541846FA
:1005E000491C0028F3D123462A463046BDE8F04195
:1005F00000F0F6B8000000002D0000002B00000005
:10060000200000002DE9F05F894604464FF0000A03
:10061000DFF874B1FB44C0F820A02046E1688847A9
:10062000002874D0252806D0D4E901219047206AFB
:10063000401C2062F1E700265F462046E1688847BB
:100640002028054607DB312D05D2781910F8200C3B
:1006500008B10643F1E7B00701D526F00406C4F857
:100660001CA00027C4F818A02A2D09D0284609F09C
:100670007AFB38B304EB8708303DC8F8185019E00E
:1006800059F8041B204604EB87029161E168884712
:10069000012F054618D1E069002820DA26F020064F
:1006A0001DE0D8F8180000EB800005EB4000303862
:1006B000C8F818002046E1688847054609F053FB52
:1006C0000028EED1012F0AD02E2D08D12046E16856
:1006D00088477F1C0546022F46F02006C4DBA06930
:1006E000002803DA404246F00106A061F00701D07D
:1006F00026F010066C2D0BD0682D09D04C2D39D06A
:100700006A2D35D0742D35D07A2D33D016E038E0EF
:10071000E1682F4620468847B842054609D16C2F2C
:1007200026D04FF48060E16806432046884705469E
:1007300004E06C2F1AD04FF4807006430DB3A5F17E
:100740004100192802D8203546F400664A46294659
:10075000204626604E46FFF713FE80B101280BD0DD
:10076000F61D26F0070000F1080956E74020E4E7EF
:100770008020D8E70020D6E706F104094DE7284697
:1007800052E7206ABDE8F09FE2A300004FF00002AC
:1007900000B5134694469646203922BFA0E80C5077
:1007A000A0E80C50B1F12001BFF4F7AF090728BF52
:1007B000A0E80C5048BF0CC05DF804EB890028BFCE
:1007C00040F8042B08BF704748BF20F8022B11F0F7
:1007D000804F18BF00F8012B704770477047704773
:1007E0002DE9F0470D4699469246044600F124084B
:1007F0000168880604D5E06921F01001216000E05D
:100800000120A84201DD471B00E00027A1697A19F9
:1008100002EB0900081AA0612078C00602D4204625
:10082000AFF30080002608E0D4E901211AF80600A1
:100830009047206A401C761C20624E45F4DB2078ED
:10084000C0060AD52046AFF3008006E0D4E90121B6
:1008500030209047206A401C2062381EA7F1010713
:10086000F4DC07E0D4E9012118F805009047206A7C
:10087000401C2062281EA5F10105F3DC2046AFF3E1
:1008800000802078000602D50220BDE8F087012014
:10089000FBE770472DE9FF4F0C461E464FF0FF3730
:1008A0008BB0D2E90001DDF860800A908A46C1F37E
:1008B0000A5505B93D46002108464FF00000BAF13F
:1008C000000F00F4400005DA00EB80004FF4400117
:1008D00001EA50004FEA9059B9F1010F00DDB94625
:1008E0000A9850EA4A000ED044F61050A5F2FF359F
:1008F00045432F14B8F1000F1ED07542291E1EDD8E
:10090000C9F100021CE0B8F1010F4FF0000001D066
:10091000302103E0F24305E02154401CB042FBDBF0
:1009200030460022002121540B99C1F80880C1E90A
:1009300000200FB0BDE8F08FBD1B6D1CDEE74A46FE
:1009400000DA694206A800F077FA06AB93E80700E0
:1009500003AB83E8070050460A9900F048FB8DE896
:100960000700A0F500501F3800900398002D09DD06
:1009700042F21F014A46084403A90390684600F06A
:10098000A7FD08E0A0F500504A461F3803A90390D0
:10099000684600F0B1FD8DE807000004000C03D0AC
:1009A0004FF0FF30410800E01046B8F1000F03D0CF
:1009B0000022009215461EE0751E05D400F0B6F91F
:1009C000303262556D1EF9D5B3460122084302D07C
:1009D00000227F1C04E02078302801D100227F1EF5
:1009E000002A099786D01DE0112D07DA00F09EF944
:1009F000303262556D1C50EA0102F5D1084302D035
:100A00000098C8B10EE00021681E05E0235C625C1E
:100A100063542254401E491C8142F7DBAB46A81B9D
:100A2000401E0990002004F80B000B98099AC0F8AA
:100A30000880C0E9002B7CE711264FF0000859E739
:100A40002DE9F04F88460446D21D22F0070191B0EF
:100A5000D1E90001CDE90A0109F05CF902460B98E1
:100A6000C00F01D02D2007E02068810701D52B2081
:100A700002E0202101EAC000032A099001D0072AE0
:100A800005DB03464146204600F096F90BE120784D
:100A9000800601D5E06900E00620B8F1650F8146C7
:100AA00006D0B8F1660F18D0B8F1670F70D131E0F9
:100AB0000020B9F1110F009001DB112301E009F1D1
:100AC00001030AAA01A90CA8FFF7E4FEDDE90C70F6
:100AD000002609F10105834647E001204B460090BE
:100AE0004FF000470AAA01A90CA8FFF7D3FEDDE9E1
:100AF0000DB00C995D46002610B909F101000D18E2
:100B0000B9EB050003D4C0F1FF3609F10105A5EBEF
:100B100009002BE0B9F1010F01DA4FF001090020C3
:100B2000B9F1110F0090484601DD112300E00346A2
:100B30000AAA01A90CA8FFF7ADFEDDE90C704D462D
:100B400000268346207800070AD4AB4500DA5D46CC
:100B500001A8012D04DD411911F8011C302907D02D
:100B60004F4502DA17F1040F04DA012082460FE044
:100B70006D1EEEE7002F02DCED1B3E4403E0781C07
:100B8000A84200DD7D1CB81B00F1010A4FF00047B0
:100B90002078000703D4AA4501DB4FF0FF3A00217B
:100BA000B7F1004F0DF143088DF8431024D0022017
:100BB0002B23002F01DA7F422D230A21021EA0F1F0
:100BC000010000DC5FB197FBF1FC97FBF1F201FB48
:100BD0001C7C17460CF1300C08F801CDEEE7A8F1AB
:100BE000010003702188090501D5452100E0652138
:100BF000A0F1010800F8011C09980FA9A1EB080752
:100C0000FF1D00B10120411901EBEA70A1693844D0
:100C1000081A401EA0612078C00602D42046AFF317
:100C20000080099828B1D4E901219047206A401C2E
:100C300020622078C00622D52046AFF300801EE057
:100C4000002E04DBB34502DD01A8805D00E030200A
:100C5000D4E901219047206A401C2062761CAAF149
:100C600001005FEA000A0AD100F05CF8C068016880
:100C7000405CD4E901219047206A401C2062281E74
:100C8000A5F10105DCDC07E0D4E9012118F8010B2E
:100C90009047206A401C2062381EA7F10107F3DC50
:100CA0002046AFF30080032011B043E601694A1CDF
:100CB00002610878704700B58FB0CDE9013100219D
:100CC000059105497944CDE9031011466846FFF7BF
:100CD00099FC0FB000BD0000E5FFFFFF0A6802F8B5
:100CE000010B0A607047D1E900239A4202D2531CDB
:100CF0000B601070704710B5436913B1AFF30080FB
:100D000001E0FFF719FC012010BD127800F1240169
:100D10000A7000224A700122EDE711684FF0FF329D
:100D2000E9E7000000487047A02D002430B5B0F17D
:100D30000A024FEA900E71F100034EEA817EB0EB99
:100D40000E0061EB91014FEA101E4EEA017E10EB9E
:100D50000E0041EB11114FEA102E4EEA016E10EB1E
:100D60000E0041EB11214FEA104E4EEA014E10EBFE
:100D70000E0041EB1141401841F100014FEAD00053
:100D800040EA41704FEAD10110EB80054FEA81043F
:100D900044EA907444EB01046D1944EB0404521BC3
:100DA000A3414FF0000348BF0A3200D530BD401CBC
:100DB00041F1000130BD00002DE9F0411F4604461D
:100DC00003260168072A01F4006004DB08B116A5B8
:100DD00005E016A503E008B115A500E015A521F072
:100DE00010002060A069C01EA0610FB1401EA0616C
:100DF0002046AFF300804FB1D4E901213846904737
:100E0000206A401C2062C01C206206E0206AFAE7CB
:100E1000D4E9012115F8010B9047761EF8D220463F
:100E2000AFF30080BDE8F0814E414E006E616E0070
:100E3000494E4600696E66002DE9F0478146164628
:100E40008AB0334878440DC88DE80D0030487844A6
:100E5000801C03AC0DC884E80D0041F69B300844AB
:100E6000372190FBF1F290FBF1F5A5F1800501FB34
:100E700012041B3C02D56442012000E00020DFF890
:100E800090A080460027FA44AAF1BE0A0DE0E007D0
:100E900009D03246684607EB47010AEB810100F0B2
:100EA0002BFB8DE8070064107F1C002CEFD1184F3E
:100EB0007F44AC3F18E0E80714D007EB04100DF1B5
:100EC000180A90E80E008AE80E00C068F04201D1CE
:100ED00098190890324606A903A800F00DFB03AB51
:100EE00083E807006D10641C002DE4D1324669468A
:100EF000B8F1000F03A802D000F0EAFA01E000F018
:100F0000FBFAC9E90001C9F808200AB0BDE8F0877A
:100F1000409C000000487047802D00247546FFF774
:100F2000F9FFAE4605006946534620F007008546A6
:100F300018B020B5FFF75AFABDE820404FF0000680
:100F40004FF000074FF000084FF0000B21F00701B1
:100F5000AC46ACE8C009ACE8C009ACE8C009ACE8F4
:100F6000C0098D46704710B50446AFF30080204697
:100F7000BDE81040FFF726BA4FF0013C50F8042BB3
:100F800051F8043B9A4215D1A2EB0C03934313EAA8
:100F9000CC130BD150F8042B51F8043B9A4209D1E1
:100FA000A2EB0C03934313EACC13E7D04FF00000FD
:100FB000704700BFD01A01BAB1FA81F101F01801EF
:100FC00022FA01F0CB40C1F12001DBB2C0B2C01A5D
:100FD0002CFA01F3D11A914311EAC311E6D17047FB
:100FE00001491820ABBEFEE72600020070475FEA09
:100FF000400C08BF91F0000F4FEA8C234FEAC1224A
:1010000043EA51514FEA1C5018BF00F5F0404FEA37
:10101000300018BF41F000415FEA6C5C00F02980AD
:10102000BCF1FF3F08BF40F080407047130C06BF83
:1010300012044FF0100C4FF0000C130E04BF1202FC
:101040000CF1080C130F04BF12010CF1040C930FE8
:1010500004BF92000CF1020CD30F04BF52000CF13C
:10106000010C11464FF00002A0F11F00A0EB0C0094
:10107000704711F0004F08BF704731F000413FF456
:10108000D5AF0B0C06BF09044FF0100C4FF0000C4D
:101090000B0E04BF09020CF1080C0B0F04BF090171
:1010A0000CF1040C8B0F04BF89000CF1020CCB0F68
:1010B00004BF49000CF1010CCCF12003A0EB0C00A3
:1010C00022FA03F302FA0CF241EA030100F10100F3
:1010D000704720F07F4C80EA030023F07F47ACEBA1
:1010E000070303F57C5300F0004003F1FF032DE9F3
:1010F00080494FEA154B09B44FEA144325EA0B4ED9
:1011000024EA03480FF2042606EB132749083E7829
:101110005FEA320203FB0667C7F5000707FB06F626
:101120004FEA54374FEAD64606F1020607FB066C33
:10113000CCF1005C4FEA1C472CEA074C07FB06F495
:101140000CFB06F504EB15464FEA961634BF00205B
:101150004FF000404FEAD13706FB07FC4FEA1C4C2A
:101160000CFB0BF7D21B03FB0CF761EB07010CFB2D
:101170000EF7B0EB074072EB17420CFB08F734BFD9
:10118000A2EB0742B2EB074261EB17414FEA0C4476
:101190004FEA910706FB07FC4FEA1C4C0CFB0BF7D0
:1011A000B0EBC74072EB573203FB0CF734BFA2EB36
:1011B000C742B2EBC74261EB57310CFB0EF7B0EB05
:1011C000C70072EB57720CFB08F734BFA2EBC702E3
:1011D000B2EBC70261EB5771039F4FEA816141EAAD
:1011E000921104EBCC044FEAD1374FEA826206FB3E
:1011F00007FC42EA90124FEA80604FEA1C4C0CFB5D
:101200000BF7D21B03FB0CF761EB07010CFB0EF78E
:10121000B0EB074072EB17420CFB08F734BFA2EBB0
:101220000742B2EB074261EB17414FEA8C554FEA98
:10123000910704EB9C2406FB07FC4FEA1C4C0CFBBB
:101240000BF7B0EBC74072EB573203FB0CF734BF20
:10125000A2EBC742B2EBC74261EB57310CFB0EF772
:10126000B0EBC70072EB57720CFB08F734BFA2EB70
:10127000C702B2EBC70261EB577115EB4C254FEA81
:10128000816141EA92114FEA82624FEAD13742EA24
:10129000901206FB07FC44F100044FEA80604FEA1D
:1012A0001C4C0CFB0BF7D21B03FB0CF761EB07018B
:1012B0000CFB0EF7B0EB074072EB17420CFB08F784
:1012C00034BFA2EB0742B2EB074261EB174115EBCB
:1012D0001C154FEA813141EA92414FEA823242EADB
:1012E00090424FEA80304FEA0C7644F1000448EA1D
:1012F00003434EEA0B484FF0000EB2EB080C71EBC3
:10130000030724BF624639464EEB0E0E4FF0000B2A
:101310000018524149414BEB0B0BB2EB080C71EB3F
:1013200003077BF1000B24BF624639464EEB0E0EDD
:101330004FF0000B0018524149414BEB0B0BB2EB45
:10134000080C71EB03077BF1000B24BF62463946A2
:101350004EEB0E0E51EA020718BF46F0010616EBDF
:101360000E7655F1000254F1000103D5BDE8890164
:10137000BDE80088BDE88901BDE80048B6195241C2
:1013800041EB0101A3F10103704780807F7E7D7CEA
:101390007B7A7978777676757473727171706F6E07
:1013A0006E6D6C6C6B6A6A696868676666656464B2
:1013B000636362616160605F5F5E5E5D5D5C5C5B3C
:1013C0005B5A5A59595858575756565555555454AB
:1013D000535352525251515050504F4F4F4E4E4D09
:1013E0004D4D4C4C4C4B4B4B4A4A4A494949484855
:1013F0004847474747464646454545444444444395
:1014000043434342424242414141002B26D47700AC
:1014100021D01CB54FEA370703B44FF010004FF04E
:1014200010014FF000000FBCBDE810400BF1010BA4
:10143000BBF1010F08BF5FEA170722BF12F10102DB
:1014400011F101014FF0004143F1000300F00040B1
:1014500043EA00007047F9D35708DAE746EA064640
:1014600013F1400F4FEA16461FDD13F1200FDFBFC7
:1014700016430A46002120335B42C8D0C3F120073F
:1014800046EA064602FA07F74FEA164646EA070614
:10149000C3F1200722FA03F201FA07F721FA03F158
:1014A0004FF0000342EA0702B1E746EA020646EAC5
:1014B00006464FEA164646EA0106BCBF46EA06461D
:1014C000360C4FF000034FF000024FF000019EE792
:1014D0002DE9C048934630B491E8380007C831EA96
:1014E000400C48BF34EA430C03D5FFF7F2FDFFF789
:1014F0008CFFF0BCBDE800882DE9C048934630B4AD
:1015000091E8380007C810F0804F08BF13F0804FF3
:1015100003D100F005F8FFF778FFF0BCBDE80088C4
:1015200020F07F4780EA030023F07F4C07EB0C0399
:10153000A3F57C5300F00040A3F1FE0392F0000FEE
:1015400000F0B38095F0000F00F077802DE901499D
:101550004FEA11404FEA144621EA004800FB06FC1E
:1015600024EA064708FB06F607FB08F800FB07F726
:1015700018EB06484CEB164C4FEA124B18EB074899
:101580004FEA15464CEB174022EA0B4E0BFB06FCCC
:1015900025EA06470EFB06F607FB0EFE0BFB07F7D8
:1015A0001EEB064E4CEB164C4FF000061EEB074EA2
:1015B0004CEB174B18EB0B0840F1000018EB0E0B2F
:1015C00058EB000840F100008F1A4FF000013CBFBB
:1015D000C943661B14BFB5EB040C00213CBFC943D3
:1015E000F61B4FEA17444EEA8E0E27EA04454FEAEF
:1015F0001C4704FB07622CEA074C05FB07F70CFBB2
:1016000005F604FB0CFC16EB074642EB174216EB03
:101610000C4642EB1C421BEB060658EB0202414112
:1016200046EA9E0601D5BDE80189B619524141EB53
:101630000101A3F10103BDE801894FEA14454FEA16
:10164000114724EA054621EA074C05FB07F406FB8F
:1016500007F70CFB06F105FB0CFC11EB074144EB13
:1016600017444FEA124711EB0C4144EB1C4422EAA9
:10167000074C05FB07F206FB07F70CFB06F605FB1C
:101680000CFC16EB074642EB174216EB0C4642EBFE
:101690001C456A1854F1000148BF7047B619524101
:1016A00041EB0101A3F10103704795F0000F37D022
:1016B0004FEA11424FEA144721EA024624EA074C56
:1016C00002FB07F106FB07F70CFB06F402FB0CFC20
:1016D00014EB074441EB17414FEA154714EB0C4458
:1016E00041EB1C4125EA074C02FB07F506FB07F717
:1016F0000CFB06F602FB0CFC16EB074645EB174508
:1017000016EB0C4645EB1C42121951F1000148BF83
:101710007047B619524141EB0101A3F10103704733
:101720004FEA14454FEA114724EA054621EA074CDF
:1017300005FB07F106FB07F70CFB06F24FF000066E
:1017400005FB0CFC12EB074241EB174112EB0C427C
:1017500051EB1C4148BF7047921841EB0101A3F1C6
:101760000103704710B5324904460068884202D030
:10177000304A904202D1D1F8080302E02E48D0F856
:10178000080310F4403F10D003F0ECFD6168B1F5A0
:10179000803F06D0B1F5003F03D0B1F5403F26D1E0
:1017A00001E0090C17E0800821E000214FF400203F
:1017B00002F0BEFE61688A03920B18D18A140C2ACB
:1017C00015D2DFE802F0140606060606060B0D0F1A
:1017D0001113890C4900B0FBF1F008E0000906E0A4
:1017E000400904E0800902E0C00900E0000A134952
:1017F0004008884204D82068816821F4407108E0DC
:101800000F49884207D82068816821F4407141F46B
:101810008071816010BD0B4988422068816804D8BE
:1018200021F4407141F40071F3E741F44071F0E7B5
:10183000002002400021024000600258105E5F005C
:1018400020BCBE0040787D012DE9F0410027044610
:1018500000680D4604F0C6FF0646206804F0BEFF8F
:1018600030435DD020682F4EC168890105D5617E67
:10187000012902D1217E01290BD0022D1DD0206823
:1018800004F0B0FFB8B120688168C1F3400169B1CC
:1018900011E02549012502E08F4232D27F1C026807
:1018A000D2435206F8D440210160E8E78168314014
:1018B00041F010018160012D11D0206804F08EFFED
:1018C00048B120688168C1F3400121B98168314085
:1018D00041F020018160022D08D0032D04D00425A1
:1018E00001F00AFE064617E00C25F9E70825F7E7A0
:1018F00001F002FE801B05280ED92068806828426E
:101900000AD0206E40F010002066606E40F00100AA
:1019100060660120BDE8F081206880682842E7D138
:101920000020F7E7C0FFFF7F00DC0C0070B5044625
:10193000006881688268C1F3400112F0010F28D06D
:1019400039BB816801F00D01012914D18168124A67
:101950001140891C816021680320086001F0CCFDE2
:10196000054612E001F0C8FD401B02280DD9206891
:101970008068C00709D0206E40F010002066606EBD
:1019800040F001006066012070BD20688068C007DB
:10199000E8D1002070BD0000C0FFFF7F70B5044695
:1019A0000068816811F0010F40D18168204A11421E
:1019B0002DD18168D5432940491C816001F09CFDEF
:1019C0001C49064620681C4B884201D0984201D130
:1019D0001A4A00E01A4A9268984202F01F0200D0A8
:1019E000014681421DD0E2B120E0816811F0010F73
:1019F00003D181682940491C816001F07DFD801B75
:101A000002280ED920680068C043C00709D0206EA4
:101A100040F010002066606E40F00100606601201A
:101A200070BD20680168C943C907DED1002070BDC0
:101A30003F000080002002400021024000230240BD
:101A400000630258FEE7000010B500F01BF828B153
:101A500003498A7812B100228A7010BD002010BD9F
:101A60002001002470B5064C0025257001F044FDCE
:101A7000606001216570A17001F03EFDA06070BD45
:101A80002001002470B500F041F80024054601F063
:101A900033FDB5F5967F014601D8012419E04FF4D6
:101AA000C870A5F28A22824201D8022411E0A5F270
:101AB0000E62824201D803240BE0A5F6CA028242DC
:101AC00001D8042405E0A5F6EA35B5F5E17F00D894
:101AD00005240D480278944201D004704160427898
:101AE000944207D04368CB1A192B03D3447044B9EE
:101AF000816000E02AB98268891A282901D301216E
:101B00008170407870BD000020010024FEB50026E1
:101B10006C463546174801F05FF81648052100F07D
:101B2000C9FF50B124F81560124801F0D9F86D1CB6
:101B3000052DEFD30021084607E00E4800F016FE01
:101B400024F81500F0E700200AE004EB400334F825
:101B500010205D88AA4202D924F810505A80401CF7
:101B6000C1F104028242F0D8491C0429EBD3BDF82C
:101B70000400FEBD70010024002070470020704763
:101B800005490022054810B506F084FC04490348C5
:101B900006F073FC002010BD88110024AC04002462
:101BA000880900240146044810B506F066FC024886
:101BB00006F03CFC002010BDAC040024002070475F
:101BC00070470000014890ED080A70473401002476
:101BD0000148407970470000340100240148806AC0
:101BE0007047000034010024014890ED090A704755
:101BF00034010024014890ED070A704734010024A5
:101C000070B5114C00B1A06001B901212170A0682C
:101C100000F0DAF90025E580E5602561656101F0F5
:101C20006BFCA0610121A5709FED080AE57025718C
:101C300084ED070A84ED080A84ED090AA562617142
:101C4000BDE8704000F046B93401002400000000F7
:101C5000002801DA002004E04FF4C872904200DD51
:101C60001046044A906209B1012000E00020507142
:101C7000704700003401002470B5254DDFED250AC2
:101C80002DED028B84B0AC6A95ED080A9FED228A97
:101C9000F4EEC00AF1EE10FAF1EE400A70FE800A8E
:101CA000002C80EE880A01DA002404E04FF49670DC
:101CB000844200DD0446DFED190A30EE200ABDEE55
:101CC000C00A10EE100AA04201DC012000E0002052
:101CD000697901B1012108B9C1F101014FF44876D8
:101CE000002304FB06F001228DE80D0028784FF454
:101CF0007A7200F0F7F800EE104AB8EEC00A20EE53
:101D0000080A85ED070A04B0BDEC028B70BD000027
:101D100034010024000000000000B4420AD7233C34
:101D200002480021007800F057B900003401002477
:101D30002DE9F041224C05460127A07828B9A06979
:101D4000281AB0F5FA7F00D3A7700026E08850B1BA
:101D5000E068281A052806D3E1881A4800F074F8CC
:101D6000E680E67007E0E07828B16069281A32283A
:101D700001D3E670E680A078002812D0E078002831
:101D80000FD12069281A50280BD3207958B1012887
:101D90000FD020780F2100F0D3F82671E77025616D
:101DA0006561BDE8F08120780C2100F0C9F8277149
:101DB000F4E720780E2100F0C3F802202071EDE74F
:101DC00034010024602D002404498A68904203D124
:101DD0000020C88000F07EB8704700003401002465
:101DE00010B50C4CA168884212D1E088202806D298
:101DF000E0886278084B411CE1801A5401E0002021
:101E0000E08001F079FBE060BDE8104000F062B8CE
:101E100010BD000034010024602D002400EE100AE3
:101E2000DFED070A9FED071AB8EE400A002920EE01
:101E3000200A20EE010AF1EE400A00FE200A704757
:101E40000000B44300008037002810B51CD00229E0
:101E50001AD31F4C027823789A4215D14278332A3C
:101E600013D0352A21D0362A0ED108290CD1D0F82A
:101E70000320817912BA22F0FF020A4381781046CA
:101E8000FFF7CCFF84ED080A10BD0829FCD1D0F87B
:101E90000320817912BA22F0FF020A4381781046AA
:101EA000FFF7BCFF84ED070A10BD0629FCD1B0F88E
:101EB000031049BA00EE101AB8EE400A84ED090A80
:101EC00080780028F0D0B1EE400A84ED090A10BDF8
:101ED0003401002402490122481E806804F0D8BB66
:101EE000350100242DE9F041134C4FEA122E4FF03A
:101EF000FD0CDDE90657089E2070280E84F801C00D
:101F00004FEA154CA170290A84F803E04FF06B0EDC
:101F100022716371A07184F807C021726572A77283
:101F2000E67284F80CE02146044864230D224068E0
:101F3000BDE8F04104F0D2BBFC2A00242C010024AF
:101F40001F4B18700120491F12290FD2DFE801F042
:101F5000090B17191B1D1F21232527292B2D2F3175
:101F60003335242100E02621597002206B21421CC8
:101F70001954144864231249406804F0AFBB272168
:101F8000F2E72921F0E73021EEE73121ECE73221B9
:101F9000EAE73321E8E73421E6E73521E4E73621B3
:101FA000E2E73721E0E73821DEE73921DCE73A21B3
:101FB000DAE73B21D8E73C21D6E73D21D4E7000012
:101FC0009C2B00242C010024002801D001494860EA
:101FD000704700002C010024084A30B4FE259824E4
:101FE0006B23107055709470D17013716423044882
:101FF00005220249406830BC04F070BB0C2B002461
:102000002C01002472B6FEE72DE9F0470F4690F848
:102010005C109CB0044601294FF0000922D0002634
:10202000DFF8F480012084F85C0018961996216886
:10203000414519D1394D0095284604F0D7FB824619
:10204000206804F0D3FB50EA0A0115D0216E4FF04E
:10205000010941F020002066484684F85C601CB00D
:10206000BDE8F0870220FAE7206E84F85C6040F05B
:10207000200020660120F2E720684146884201D016
:10208000A84201D1264800E0264840F61F72D7F842
:1020900000C0254BBCF1000F23D0D0F808C0D7F802
:1020A00004802CF4404C4CEA080CC0F808C0D4F86A
:1020B00000C08C4501D0AC4507D18968AB6801F000
:1020C000010103F00103194302E0996801F00101E5
:1020D0000029C1D1BD6839688368294393431943F6
:1020E00017E0876827F44047876027688F4201D050
:1020F000AF4207D18968AB6801F0010103F0010329
:10210000194302E0996801F001010029A4D1816816
:1021100091438160A0E700000020024000210240BE
:102120000023024000630258006002582DE9F84F76
:1021300004460D460020FC4E0090814694F85C1049
:10214000DFF8E8B3FA4F0129206807D04FF0010A01
:1021500084F85CA004F046FB18B195E20220BDE8CB
:10216000F88F286800280FDB2168B1420CD0CA69BB
:10217000030327D090FAA0F0B0FA80F000F01F031C
:102180000AFA03F00243CA61D5E900124FF00C0CC1
:1021900020681F23C1F384610CEA921C02F01F0225
:1021A000604493409140026B9A430A430263206863
:1021B00004F018FB8046206804F010FB58EA000089
:1021C00003D058E1C0F38460D8E72A684FF0040CCC
:1021D00020680723A9680CEAD25CC2F30452604469
:1021E0009340914042699A430A4342612068B04259
:1021F00004D1C2686969C2F3C1020BE0CD4A12681A
:10220000BAEB127F02D0C168C90605D4C2686969F9
:10221000C2F38202520004E0C268696902F010024F
:10222000520891402A69042A5ED02B6800EB820292
:10223000B04202F160020CD1106803F0F843DFF8FD
:10224000F8C20B4300EA0C00184340F00040106055
:1022500008E0D2F800C003F0F84008430CF0004159
:10226000014311602068B0421CD12A69E96900EB82
:102270008200026E22F080720A43026695F82010F6
:1022800020682A6901290AD00021B04299D100EBC7
:102290008200026E22F000720A430266EBE04FF009
:1022A0000071F2E795F821102A69012916D0002162
:1022B00000EB8200026E22F000420A430266297E91
:1022C00020682A6901290CD00021036902F01F024D
:1022D000914023F4F0420A430261CCE04FF0004108
:1022E000E6E74FF40061F0E7B04273D1002104F05B
:1022F0006FFA000320684FF000016DD004F068FA17
:1023000090FAA0F0B0FA80F12868020369D090FA40
:10231000A0F0B0FA80F0814204D10022206811467A
:1023200004F070FA2068012104F052FA00032068DA
:102330004FF0010158D004F04BFA90FAA0F0B0FA37
:1023400080F12868020354D090FAA0F0B0FA80F02F
:10235000814204D120680022012104F053FA206850
:10236000022104F035FA000320684FF0020143D047
:1023700004F02EFA90FAA0F0B0FA80F12868020377
:102380003FD090FAA0F0B0FA80F0814204D12068EA
:102390000022022104F036FA2068032104F018FA22
:1023A000000320684FF003012ED004F011FA90FAD8
:1023B000A0F0B0FA80F1286802032AD090FAA0F0C9
:1023C000B0FA80F0814256D120680022032104F047
:1023D00019FA50E020E0FFE704F0FAF9C0F3846155
:1023E00092E7C0F3846096E704F0F2F9C0F38461E9
:1023F000A7E7C0F38460ABE704F0EAF9C0F38461B7
:10240000BCE7C0F38460C0E704F0E2F9C0F3846184
:10241000D1E7C0F38460D5E7016E2A7801F0F84176
:10242000B1EB826F03D1016E21F00041016620689B
:102430002978426E02F0F842B2EB816F03D1416E0F
:1024400021F00041416620682978826E02F0F8424E
:10245000B2EB816F03D1816E21F00041816620686B
:102460002978C26E02F0F842B2EB816F03D1C16EDF
:1024700021F00041C1662068816811F0010F52D13E
:102480002E49B042EB682A680FD1D0F8B0C003F0F3
:102490001808C2F3130321FA08F111402CEA030CC7
:1024A0004CEA010CC0F8B0C00EE0D0F8C0C003F098
:1024B0001808C2F3130321FA08F111402CEA030CA7
:1024C0004CEA010CC0F8C0C0E968594572D11C48FB
:1024D0002268DFF870C0DFF870B08242DFF86CE08D
:1024E0001B481C4BDFF8708045D12968614567D0D7
:1024F000B1EB4C0C71D071456BD0A1F1865CBCF195
:10250000100C77D0DFF854C0614571D0DFF850C0AF
:10251000614507D0814276D0994249D01148814225
:1025200024D1114879E0B5E0006002580000FF476F
:10253000002102400010005C00F0FF03FFFF0F00CD
:102540000020024002003004400020190800900CD6
:102550000008302E00106032002090362000F01469
:102560000004002A00002143000052476E488142C7
:1025700052D16E4851E0BA421DD1296861451FD041
:10258000A1F1066CBCF1040C27D0714521D0A1F15A
:10259000865CBCF1100C2DD0DFF894C1614527D0CA
:1025A000DFF890C1614538D081422CD09942DDD10D
:1025B000404632E040E0B2422ED12968614501D167
:1025C00001202AE0A1F1066CBCF1040C05D0714594
:1025D00005D1594821E000E00CE058461DE0A1F18A
:1025E000865CBCF1100C05D0DFF844C1614504D114
:1025F000524812E0524810E005E0DFF838C161456A
:102600000BD0814201D1184607E04E48414504D025
:10261000814201D14C4800E00020B2420CD0D16987
:10262000030319D090FAA0F0B0FA80F000F01F0375
:102630000AFA03F00143D161D5F800C0BCF1000FE4
:1026400028DA424B20684249DFF808A1984201D0BD
:10265000B84203D10A4602E0800EE7E7524692688C
:10266000984202F0E07201D0B84209D19D68D7F8D3
:10267000088005F0010508F0010845EA080502E0B8
:10268000B56805F0010555B1216E4FF0010941F023
:1026900020002066002084F85C0048465FE52E4D4F
:1026A000AC451CD115021AD4B042F3D1984202D0E5
:1026B000B84200D051468B6842F4000023F0E0722B
:1026C00002438A60264925480968B1FBF0F04000C2
:1026D000801C00E0401E00900028FBD1DAE7214D6D
:1026E000AC450CD1D5010AD4B042D3D1984202D026
:1026F000B84200D051468B6842F080700EE01A4D0F
:10270000AC45C7D15502C5D4B042C3D1984202D01E
:10271000B84200D051468B6842F4800023F0E0724A
:1027200002438A60B6E700000000844B0000B84F07
:102730002000F0140004002A8000501D0002B02583
:10274000000180210040C03A0080F03E002002409D
:102750000023024000630258000052C7400D0300EE
:1027600014000024000021C3000084CB0068006C2A
:10277000704700002DE9F8434FF0000504002E4695
:10278000009502D0206E18B108E00120BDE8F88362
:10279000204600F043F9656684F85C502068816843
:1027A000C1F3407119B181688E4A1140816020687F
:1027B0008168C1F3007181B981688B4A114041F091
:1027C000805181608A4989480968B1FBF0F0401C5A
:1027D00000E0401E00900028FBD120688168C1F312
:1027E000007141B9216E012641F010012166616E30
:1027F00041F00101616603F0F5FF216E01F0100167
:102800000143206E03D0012640F01000DFE020F4E9
:10281000807040F00200206620688168754D11F0DC
:10282000010F1ED1744B754A984201D0904207D1D6
:102830009968976801F0010107F00107394302E048
:10284000A96801F0010161B9984201D0904201D11B
:102850006B4800E06B488268616822F47C120A438E
:1028600082602168A9421FD1637ED4E90207E26B2E
:102870005B033A43082805D00C280FD01C280FD042
:1028800018280FD05FF0000000F00C0794F820002B
:1028900043EA47031A4342EA00400FE00420F3E70B
:1028A0000820F1E71C20EFE7627E94F82030A7684B
:1028B000E06B520342EA03423843104394F820206D
:1028C000012A04D1A28C504B03EB42421043A26A6E
:1028D0002AB1E36A02F47872024343EA0200CA684A
:1028E000A9420BD1494B1A400243CA602068626B6F
:1028F000016921F040611143016103E0444B1A403A
:102900000243CA60206803F06DFF0746206803F0A9
:1029100065FF38434ED12068A946484506D1217E3F
:1029200094F83820890341EA420103E0227E216BBA
:1029300041EA8231C26844F203039A430A43C26007
:1029400094F844000128206803D0016921F00101B6
:1029500022E048450ED1D4E9121CD4E914250369BC
:102960002C4F41EA0C012A433B401143194341F0EB
:10297000010111E0D4E91317B4F848C0DFF89880DA
:10298000636D026908EB0C4C224D394343EA0C039A
:102990006D1E2A401943114301612068236C0269AE
:1029A00022F070421A4302612068484502D0204656
:1029B000FEF7D8FE2069012820680BD0016B21F0BA
:1029C0000F010163206E20F0020040F0010020663C
:1029D0003046DBE6E269016B521E21F00F01114324
:1029E000EFE70000C0FFFF5FC0FFFF7F400D030067
:1029F0001400002400600258002002400021024020
:102A000000230240006302580000FEFF0740F0FF71
:102A100003C0F0FF1FF800FC0100FFFF30B5B5B0A8
:102A2000044614212EA8FDF7B1FEB8216846FDF733
:102A3000ADFE1D492068884233D1022000224FF4A8
:102A40000021009110231446CDE90120CDE9033087
:102A5000C025059006906846CDE907520992289254
:102A600001F0B4FE08B1FFF7CDFA1048016841F05B
:102A700020010160006800F0200033900B4808300E
:102A8000016841F00101016000682EAA032100F0F5
:102A900001003390202082E8130005482EA900F0A1
:102AA0000FFC35B030BD000000200240D844025871
:102AB000000002582DE9F047434D0446006888465F
:102AC0004249434BA842DFF80C9101D0484501D15F
:102AD0000A4600E01A46926802F01F066269082A58
:102AE00014D0AEB1052E13D0092E11D0A84202D0B9
:102AF000484500D01946886800F4404058B1206E1F
:102B000040F0200020660120BDE8F087082703E0A0
:102B1000C068C007F2E7042700F0EEFC824618E028
:102B2000B8F1FF3F15D000F0E7FCA0EB0A014145EA
:102B300002D8B8F1000F0CD120680068384208D1E3
:102B4000206E002184F85C1040F004002066032011
:102B5000DAE7206800683842E2D0206E40F4007066
:102B60002066206803F046FE80B1607E70B9206860
:102B7000006800070AD5206E20F480702066206E61
:102B8000C00403D4206E40F0010020662068484550
:102B900001D12A4600E00246824210D07EB1052EC5
:102BA0000DD0092E0BD0484500D00546E968082F06
:102BB00007D0490401D40C2101600020A4E7C168BA
:102BC000F5E70821F8E7000000200240002302405A
:102BD00000630258002102402DE9F0413B4D0446BC
:102BE00000683B4FA84201D0B84201D1394900E00A
:102BF0003949896801F01F0603F0F4FD18B102217C
:102C00000846BDE8F08194F85C0001280CD0012052
:102C100084F85C002046FEF7C1FE01004FF0000280
:102C200004D084F85C20EBE70220EAE7236E40F64C
:102C3000016C206823EA0C03B84243F480732366D6
:102C400001D12B4600E00346834200D01EB9236E1B
:102C500023F480132366236EDB0404D5636E23F014
:102C60000603636600E062661C23036084F85C2050
:102C70002068B84201D12A4600E00246824215D0BF
:102C8000A6B1052E12D0092E10D0226EB84242F401
:102C90008012226600D00546E8688001B0D5206E1B
:102CA00020F4005040F480502066A9E7C2689201E9
:102CB00005D5226E22F4005242F4805222668268C8
:102CC000064B1A40121D82609AE700000020024065
:102CD000002102400023024000630258C0FFFF7F32
:102CE00010B5044690F85C00012808D0012084F853
:102CF0005C0003212046FEF7A7FD10B10BE0022087
:102D000010BD2046FEF712FE28B9216E21F488512D
:102D100041F001012166002184F85C1010BD000023
:102D20002DE9F84F044600F0E7FB00903CB194F821
:102D30003500022806D0802161650020E4E00120F2
:102D4000BDE8F88FC74DC74EC649183520683036E4
:102D5000DFF81483DFF814938842DFF814A3DFF858
:102D600014B328D0A84226D0B04224D0404522D067
:102D7000484520D050451ED058451CD0BD4A183279
:102D8000904218D0BC4A904215D0BB4A18329042AB
:102D900011D0B94A303290420DD0B74A48329042F1
:102DA00009D0B54A6032904205D0B34A7832904299
:102DB00001D0B14A9032026822F00102026020681C
:102DC00088422ED0A8422CD0B0422AD0404528D0EC
:102DD000484526D0504524D0584522D0A54A18321F
:102DE00090421ED0A44A90421BD0A34A183290426F
:102DF00017D0A14A3032904213D09F4A48329042B5
:102E00000FD09D4A603290420BD09B4A783290425C
:102E100007D0994A9032904203D0974AA832904204
:102E200009D1026822F01E0202602068426922F085
:102E30008002426103E0026822F00E02026027680D
:102E4000884938468F424DD0A8424BD0B04249D035
:102E5000404547D0484545D0504543D0584541D0DE
:102E60008449183188423DD0834988423AD082490A
:102E70001831884236D080493031884232D07E497C
:102E8000483188422ED07C49603188422AD07A4924
:102E90007831884226D078499031884222D07649CC
:102EA000A83188421ED0754988421BD0734914311D
:102EB000884217D071492831884213D06F493C317C
:102EC00088420FD06D49503188420BD06B49643134
:102ED000884207D069497831884203D067498C31EC
:102EE0008F4214D1206E016821F4807101600EE0E0
:102EF00000F002FB0099401A052808D920226265DB
:102F00000321002084F8351084F8340017E738686E
:102F1000C007EDD1534A0121206890422ED0A8422B
:102F20002CD0B0422AD0404528D0484526D0504524
:102F300024D0584522D04F4B183398421ED04E4BC8
:102F400098421BD04C4B1833984217D04A4B303321
:102F5000984213D0484B483398420FD0464B6033C9
:102F600098420BD0444B7833984207D0424B903371
:102F7000984203D0404BA833984208D194F85C7033
:102F80003F23A06D07F01F07BB40836007E094F864
:102F90005C30A06D03F01F0301FA03F34360206867
:102FA00090424DD0A8424BD0B04249D0404547D086
:102FB000484545D0504543D0584541D02D4A183258
:102FC00090423DD02C4A90423AD02B4A183290423F
:102FD00036D0294A3032904232D0274A4832904285
:102FE0002ED0254A603290422AD0234A783290422D
:102FF00026D0214A9032904222D01F4AA8329042D5
:103000001ED01E4A90421BD01C4A1432904217D048
:103010001A4A2832904213D0184A3C3290420FD0BC
:10302000164A503290420BD0144A6432904207D074
:10303000124A7832904203D0104A8C3290420BD11F
:10304000D4E919024260E06E30B1026822F4807265
:103050000260D4E91C024260002084F8351084F834
:1030600034006DE61000024058000240700002403B
:1030700088000240A0000240100402400854025898
:103080002DE9F05F28B190F83510022904D0802195
:1030900041650120BDE8F09F764A764BDFF8D4C148
:1030A000183201683033744CDFF8D0B16145744D8B
:1030B000744E754FDFF8D4E1DFF8D4A1DFF8D49176
:1030C00031D091422FD099422DD0A1422BD05945D9
:1030D00029D0A94227D0B14225D0B94223D0DFF868
:1030E000AC81A8F1780841451DD0DFF8A081A8F196
:1030F0006008414517D0DFF89481A8F148084145A0
:1031000011D0DFF88881A8F1300841450BD0DFF8F5
:103110007C81A8F11808414505D0714503D051457F
:1031200001D049452AD14FF0040880F83580614527
:103130001FD091421DD099421BD0A14219D05945B0
:1031400017D0A94215D0B14213D0B94211D04F487F
:10315000783881420DD04D486038814209D04B48C3
:103160004838814205D049483038814201D047482B
:103170001838086820F00100086078E0D1F8008075
:1031800028F00108C1F800800168D1F8008028F01B
:103190000E08C1F800800168614546D0914244D0D4
:1031A000994242D0A14240D059453ED0A9423CD09C
:1031B000B1423AD0B94238D0344A783A914234D008
:1031C000324A603A914230D0304A483A91422CD04B
:1031D0002E4A303A914228D02C4A183A914224D0B3
:1031E000714522D0514520D049451ED02A4A9142EE
:1031F0001BD0294A1432914217D0274A28329142D3
:1032000013D0254A3C3291420FD0234A503291428A
:103210000BD0214A6432914207D01F4A7832914242
:1032200003D01D4A8C32914218D1026E01211368DD
:1032300023F48073136090F85C30826D03F01F03F9
:1032400099405160D0E919124A60C16E31B10A68E3
:1032500022F480720A60D0E91C124A600122016DDA
:10326000002380F8352080F8343001B188470020F1
:1032700010E70000100002405800024070000240B9
:1032800088000240A0000240B800024088040240CA
:10329000A0040240B80402400854025870B5044625
:1032A00000F02AF90546601C02D004480078044466
:1032B00000F022F9401BA042FAD370BD08000024A0
:1032C0002DE9F84F03247C4D00234FF001094FF006
:1032D000B04B4FF00F0AE7E009FA03F632407BD01B
:1032E0000F7907F00307012F01D0022F1AD1876849
:1032F0004FEA430ED1F80CC004FA0EF827EA08078B
:103300000CFA0EFC4CEA070CC0F808C0476891F8AC
:1033100004C0B743CCF3001C0CFA03FC4CEA070CC6
:10332000C0F804C00E79F643B60702D18E68012EAC
:103330000BD0C7684FEA43088E6804FA08FC27EAF6
:103340000C0706FA08F63E43C6600E7906F003063F
:10335000022E12D1DE080F694FEA437C00EB86068D
:10336000B646366A4FEADC6C0AFA0CF807FA0CF734
:1033700026EA08063743CEF820700F7906684FEA30
:10338000430807F0030704FA08FC07FA08F726EADF
:103390000C06374307604E6816F4403F1CD0474E7A
:1033A000376847F00207376036689F0706F0020665
:1033B000009623F0030606F1B046B6463F0FD6F856
:1033C0000864DFF8FC800AFA07FC404526EA0C0690
:1033D00003D14FF0000C3AE065E0DFF8E8C060454B
:1033E00002D14FF0010C32E0DFF8DCC0604502D1C1
:1033F0004FF0020C2BE0DFF8D4C0604502D14FF053
:10340000030C24E0DFF8C8C0604502D14FF0040C83
:103410001DE0DFF8C0C0604502D14FF0050C16E09A
:10342000DFF8B4C0604502D14FF0060C0FE0DFF8C2
:10343000ACC0604502D14FF0070C08E0DFF8A0C037
:10344000604502D14FF0090C01E04FF00A0C0CFA74
:1034500007FC4CEA060CCEF808C44F68DBF80060A5
:10346000FF0226EA020600D516435F46CBF800604D
:10347000D1F804C0DBF804605FEA8C2C26EA02066F
:1034800000D516437E606E684F6826EA0206BF03C9
:1034900000D516436E602E684F6826EA0206FF03C9
:1034A00000D516432E605B1C0A6832FA03F67FF4DF
:1034B00013AFBDE8F88F000080000058F4440258B4
:1034C000000002580004025800080258000C02587C
:1034D000001002580014025800180258001C02582C
:1034E000002402580069084000D0012070470AB14A
:1034F000816170470904FBE701488068704700005C
:1035000008000024024881680278114481607047F5
:1035100008000024032010B500F086F801F068FFD1
:103520000F4A104914681368C4F3032203F00F0311
:103530008A5CC95C02F01F0201F01F01D0400A4AF8
:1035400020FA01F11160094908600F2000F010F81D
:1035500008B1012010BD00F02BF8002010BD0000C4
:103560001844025876A10008180000241400002412
:1035700070B50D4D04462878A0B14FF47A71B1FBB7
:10358000F0F00A490968B1FBF0F002F024FD48B9F7
:10359000102C07D200222146501E00F025F80020F2
:1035A0006C6070BD012070BD080000241400002470
:1035B000054808B5016841F002010160006800F0AB
:1035C0000200009008BD0000F4440258002809DB06
:1035D000410900F01F028900012001F1E021904023
:1035E000C1F80001704700000E4BF0B41B680D4697
:1035F000C3F30223C3F10706042E00D90426191DC4
:10360000072901D2002300E0DB1E012404FA06F1A1
:103610009C40491E2940641E994014402143F0BC3F
:1036200006F090BB0CED00E0064900F0070210B573
:103630004FF6FF040868044B204040EA022018437C
:10364000086010BD0CED00E00000FA0501680123E0
:10365000C0F8D834002280F8CC248869044A40F0AD
:1036600000608861486D1043486500207047000085
:103670000300001070470068416200207047F0B5F9
:1036800003685D6A39B19F6A4C1E00204FF4827650
:1036900005EB17450BE045EA0240986210E0471C35
:1036A00006EB800053F800C0F8B205EB1C45A042C1
:1036B000F5D34FF4807000EB810045EA02421A50C6
:1036C0000020F0BDD0F8E00405F0D8B901EBC1024C
:1036D00000EB8202D0F8E004126A05F028B901EB91
:1036E000C10200EB8202D0F8E004D2F8602205F0BB
:1036F0007AB9D0F8E00405F0C3B90A0601F00F0169
:1037000001EBC10100EB810101D5143101E001F5AC
:103710001571006806F0C2B801F00F020B0670B513
:1037200002EBC20104464FF001004FF0000504EB2C
:10373000810102D54875143103E081F8555201F535
:1037400015710A7094F89424012A08D084F894041E
:10375000206805F0BFFD002084F8945470BD02205D
:1037600070BD70B50279044601F00F00904201D996
:10377000012070BD01F00F024FF000050B0602EBB7
:10378000C2014FF0010204EB810102D54A751431E8
:1037900003E081F8555201F515718D70087094F8A9
:1037A0009404012808D084F89424206805F0FCFED5
:1037B000002084F8945470BD022070BD01F00F0108
:1037C00001EBC10100EB8100D0F8680270472DE9E0
:1037D000F04101F00F0604460D064FF0010006EB24
:1037E000C6014FF0000504EB810102D54875143184
:1037F00003E081F8555201F51571C2F30A024F78C2
:103800000B718A600E7007B14E83022B00D14D718F
:1038100094F89424012A09D084F89404206805F0CF
:1038200097FC284684F89454BDE8F0810220FBE719
:1038300070B501F00F05002405EBC50100EB810117
:1038400001F5187181E81C0001F80B4C01F80C5DC2
:103850008379012B00D1CA618279006805F0FCFEF2
:10386000002070BD70B50D460179044605F00F00CB
:10387000884201D9012070BD29064FF000064FF0A3
:10388000010206D500EBC00104EB81014A75143139
:1038900007E005EBC50104EB810181F8556201F5F4
:1038A00015718A70087094F89404012807D084F880
:1038B0009424206805F0A4FE280702D007E0022027
:1038C00070BDA17904F29C42206805F041FE002001
:1038D00084F8946470BD70B501F00F04002504EB0A
:1038E000C401012600EB8101203181E82C0001F8A0
:1038F0000B6C01F80C4D8379012B00D1CA618279E0
:10390000006805F0A9FE002070BD00002DE9FC5FF5
:1039100005680446284606F095F800287ED1206800
:1039200006F0BCF8002879D0D5F80808C0F30D20BF
:10393000C4F8D404206806F0B1F8800704D52068E4
:10394000416901F002014161206806F0A7F8C10653
:1039500004F29C40009035D52068816921F0100167
:1039600081612F6A07F00F00C7F3434100EBC000ED
:10397000022904EB800606F5157602D0062912D03E
:103980001BE047F6F070074217D0C7F30A12F16840
:103990001746284606F086F87169F0683944716167
:1039A0003844F06009E000990822284606F07AF8C9
:1039B0007069C7F30A11084470612068816941F099
:1039C00010018161206806F069F800034FF0080BD0
:1039D0004FF0000A4FF001097CD52068002606F060
:1039E0003CF8074674E0F80770D02068F1B206F0A2
:1039F0004DF88046C00707D005EB4611C1F8089B7B
:103A00003146204603F008F95FEA087024D505EB3B
:103A10004611C1F808BBFE49206800E048E2026C8C
:103A200000EB461001928A42D0F8081B05D9090420
:103A300003D54FF40041C0F8081B204600F00BFBF3
:103A4000F3480199814207D9A079012804D120685F
:103A50000121009A05F07CFD5FEAC86004D505EB02
:103A600046111020C1F8080B5FEA88701DD56869FF
:103A7000000605D5D5F8040840F48061C5F804189F
:103A800006EBC60004EB800090F8571200F51570A5
:103A9000012905D180F803A02046F1B200F00EFA0A
:103AA00005EB46110220C1F8080B5FEA886004D5D7
:103AB00005EB46112020C1F8080B5FEA884005D5C8
:103AC00005EB46114FF40050C1F8080B7F08761C37
:103AD000002F88D1206805F0E1FF40036ED52068F3
:103AE00005F0B4FF0026074666E0F80762D02068BC
:103AF000F1B205F0B9FF8046C00723D0D5F83428CD
:103B000006F00F0C05EB461309FA0CF08243C5F8DA
:103B10003428C3F80899A07901280FD106EBC60014
:103B200004EB8000D0E907211144016236B9606AD4
:103B300020B920680121009A05F00AFD2046F1B263
:103B4000FFF7C4FD5FEA087003D505EB4611C1F825
:103B500008B95FEAC86004D505EB46111020C1F82A
:103B600008095FEA486004D505EB46114020C1F81A
:103B700008095FEA887016D53146284605F037FFF8
:103B800006EBC60004EB8000C17D1430012905D18D
:103B900080F803A02046F1B200F08CF905EB461145
:103BA0000220C1F808095FEA086003D531462046C3
:103BB00003F098F87F08761C002F96D1206805F056
:103BC0006DFF002811DAD5F8040820F00101C5F8CE
:103BD000041894F8CC0401283BD0204600F020FAC9
:103BE0002068416901F000414161206805F056FFFD
:103BF00000050BD5D5F80808C00702D0204600F014
:103C000053FA2068416901F400614161206805F0C0
:103C100045FF00010AD52068416901F0006141615A
:103C200094F8CC04E0B1204600F03EFA206805F09C
:103C300035FFC00473D5D5F8040820F00101C5F89C
:103C400004182068102105F0D2FE00214FF67F32C3
:103C50002DE00021204684F8CCA4FFF70BFDBFE740
:103C600084F8CC942068406D0121C0F38300C4F82F
:103C7000D0042046FFF7FEFCD8E700BF05EB41105B
:103C8000C0F80829D0F8003923F40013C0F800392F
:103C9000C0F8082BD0F8003B23F40013C0F8003B19
:103CA000D0F8003B43F00063C0F8003B491C20798A
:103CB0008842E3D8D5F81C08294640F00110C5F821
:103CC0001C08E07B68B1D1F8840840F00B01C5F80E
:103CD0008418D5F8440840F00B012846C5F844186C
:103CE0000DE0D5F8140842F22B010843C5F814087A
:103CF000D5F8100840F00B012846C5F81018D0F888
:103D0000000820F4FE61C5F80018A1792068009A27
:103D100005F01EFC2068416901F480514161206872
:103D200005F0BCFE800415D5206805F051FA206826
:103D300005F07BFEE07101F015FBE2790146206899
:103D400005F010FF204600F055F92068416901F4A4
:103D500000514161206805F0A1FE000707D520460B
:103D600000F062F92068416901F0080141612068B2
:103D700005F094FE00061FD5A969012021F08001FD
:103D8000A96116E000EBC00104EB810191F8571224
:103D900001290DD105EB4011D1F8002B42F0006252
:103DA000C1F8002BD1F8002B42F08042C1F8002B63
:103DB000401C21798142E5D8206805F06FFEC002E1
:103DC0001FD501264F4614E006EBC60105EB461051
:103DD00004EB8102D0F80009117E012908D10028E6
:103DE00006DAF0B2D77540F080012046FFF785FC77
:103DF000761C2079B042E7D82068416901F480112F
:103E00004161206805F04AFE800234D5012001E0BE
:103E10000A30544F4A4626E000EBC00305EB401140
:103E200004EB8306D1F8001B96F85832012B19D108
:103E3000002917DA94F8D434C1F3004103F00103E8
:103E40008B420FD186F85722A96941F08003AB61FC
:103E50006969090606D4D5F8040840F40070C5F86D
:103E6000040803E0401C21798142D5D821684869C3
:103E700000F400104861206805F010FE400007D5EE
:103E80002046FFF71FFC2068416901F08041416135
:103E9000206805F003FE40070AD5206845686807DA
:103EA00002D52046FFF725FC206841682943416080
:103EB000BDE8FC9FD0F8E00404F039BED0F8E0047F
:103EC00004F049BEF8B5040004D094F89504002528
:103ED00010B106E00120F8BD204684F8945400F0AB
:103EE00057F8032084F89504206805F02BFB207C0C
:103EF0008DF8000094E80F0005F078F90226B0BBB9
:103F00002068002105F0EEFD88BB002001270CE0B1
:103F100000EBC001421C04EB81014F750D76CD61B1
:103F20000D624D620875C885D0B221798142EFD803
:103F3000002011E000EBC001421C04EB810181F87C
:103F4000555281F85852C1F85C52C1F86052C1F81C
:103F5000645281F85402D0B221798142EAD8207C9F
:103F60008DF8000094E80F0005F036FA10B184F8DF
:103F70009564AFE7207B657484F89574012802D1BD
:103F80002046FFF763FB206805F018FA0020F8BD13
:103F900010B5B0B00446B8216846FCF7F7FB1349EA
:103FA0002068884220D100204FF480214FF4401235
:103FB0002192CDE90010684600F008FC08B1FEF738
:103FC00021F800F0B3F80A48016841F0007101607F
:103FD00000680022114600F000702E904D20FFF77F
:103FE00003FB4D20FFF7F2FA30B010BD0000044093
:103FF000D844025870B50446C079012570B1022832
:1040000001D0FDF7FFFFD4F8E004294604F013FEC9
:10401000D4F8E004BDE8704004F0C6BD0025F2E726
:10402000D0F8E00404F0F0BDD0F8E00404F0F6BDF0
:1040300010B5044690F8940401280AD00120617458
:1040400084F89404206805F07CFD002084F8940432
:1040500010BD022010BDD0F8E02400F29C411046B3
:1040600004F0F5BD10B590F89414044600680129D9
:1040700009D0012184F89414C168490609D5617BEF
:10408000012902D005E0022010BD816B41F480318E
:104090008163206805F089FC206805F081F9002023
:1040A00084F8940410BD000010B50446D0F8E00474
:1040B00004F00FFE2068D0F8001E41F00101C0F8A6
:1040C000001EE07A002804D00248016841F0060191
:1040D000016010BD10ED00E0134970B50A68D243CD
:1040E000520705D5096801F00701814213D118E094
:1040F0000A6822F0070202430A60FFF7FDF90A4D41
:104100004FF47A760446083D07E000BFFFF7F4F964
:10411000001BB04201D9012070BD2868C043800453
:10412000F4D4002070BD00000C4802580248016819
:1041300041F08071016070470C48025810B501F0E1
:1041400011F905490968054AC1F30211515C01F0F2
:104150001F01C84010BD00002044025876A100088D
:104160004A4930B5494C0B1D0A680C3409681D6872
:10417000246802F0030305F00102C1F30511C4F342
:10418000CC04002914FB02F200EE102AF8EE400ADB
:1041900076D0414A9FED3E1ADFED3E1AB7EE000A97
:1041A00023B1012B5AD0022B18D15CE0374C283CAC
:1041B00023689B0612D5394B246801EE901A1168CA
:1041C000C4F3C104F8EE612AE34001EE903AC1F372
:1041D0000801F8EE611A81EEA22A07E002EE101A39
:1041E0001168F8EE422A81EEA22A45E001EE901A0B
:1041F0001168F8EE611A40EE811A71EE800A62EEE3
:10420000200AC1F3462101EE101AB8EE411A31EE30
:10421000001AC0EE811ABCEEE11A80ED001A116896
:10422000C1F3064101EE101AB8EE411A31EE001A40
:10423000C0EE811ABCEEE11A80ED011A1168C1F3DB
:10424000066101EE101AB8EE411A31EE000A80EE56
:10425000801ABCEEC10A80ED020A30BD01EE901A50
:10426000DFED0F2A03E001EE901ADFED0E2A116850
:10427000F8EE611A82EEA12AC1F30801B6E7FFE762
:10428000002101604160816030BD00002844025877
:10429000000000390024744C304402580090D003D0
:1042A0000024744A001BB74B494930B5484C0B1DDC
:1042B0000A68143409681D68246802F00303C5F312
:1042C0000012C1F30531C4F3CC04002914FB02F23F
:1042D00000EE102AF8EE400A75D03F4A9FED3D1AD5
:1042E000B7EE000A6BB1DFED3D1A012B01D0022BB6
:1042F00064D002EE101A1168F8EE422A81EEA22A6A
:1043000021E0334C283C23689B0612D5344B2468AB
:1043100001EE901A1168C4F3C104F8EE612AE3407B
:1043200001EE903AC1F30801F8EE611A81EEA22A7B
:104330000BE001EE901ADFED2B2A00BFF8EE611AB8
:10434000116882EEA12AC1F3080101EE901A1168EA
:10435000F8EE611A40EE811A71EE800A62EE200AD0
:10436000C1F3462101EE101AB8EE411A31EE001ADF
:10437000C0EE811ABCEEE11A80ED001A1168C1F39B
:10438000064101EE101AB8EE411A31EE001AC0EEE5
:10439000811ABCEEE11A80ED011A1168C1F30661C1
:1043A00001EE101AB8EE411A31EE000A80EE801AC2
:1043B000BCEEC10A80ED020A30BD04E001EE901AA5
:1043C000DFED092ABAE70021016041608160F3E76F
:1043D0002844025800000039384402580024744A26
:1043E0000090D0030024744C001BB74B494930B5F2
:1043F000484C0B1D0A681C3409681D68246802F0CB
:104400000303C5F30022C1F30551C4F3CC04002912
:1044100014FB02F200EE102AF8EE400A75D03F4A73
:104420009FED3D1AB7EE000A6BB1DFED3D1A012B8F
:1044300001D0022B64D002EE101A1168F8EE422A65
:1044400081EEA22A21E0334C283C23689B0612D53A
:10445000344B246801EE901A1168C4F3C104F8EEDD
:10446000612AE34001EE903AC1F30801F8EE611AC7
:1044700081EEA22A0BE001EE901ADFED2B2A00BF9D
:10448000F8EE611A116882EEA12AC1F3080101EE6B
:10449000901A1168F8EE611A40EE811A71EE800AE6
:1044A00062EE200AC1F3462101EE101AB8EE411A5D
:1044B00031EE001AC0EE811ABCEEE11A80ED001A4E
:1044C0001168C1F3064101EE101AB8EE411A31EE3F
:1044D000001AC0EE811ABCEEE11A80ED011A1168D3
:1044E000C1F3066101EE101AB8EE411A31EE000A6E
:1044F00080EE801ABCEEC10A80ED020A30BD04E0F5
:1045000001EE901ADFED092ABAE70021016041604F
:104510008160F3E728440258000000394044025803
:104520000024744A0090D0030024744C001BB74B45
:104530002DE9F04FA14A0546DFF87CA280F4807097
:10454000DFF8809289B013119F4C08439C48AAF170
:1045500004064FF0805C4FF0005828D0DFF858B2C6
:1045600085F480670F430BF1080B4FD085F400678B
:104570000F4360D085F480570F4372D085F4005705
:104580000F434FF480394FF4003E69D085F4002783
:104590000F4373D085F480370F4370D085F4804685
:1045A0000E436DD085F400420A436AD02AE0DAF85F
:1045B000001001F00701052924D2DFE801F0F9AA73
:1045C0006A259F0006A8FFF7CBFD079809B0BDE854
:1045D000F08F6846FFF768FE0098F7E703A8FFF73B
:1045E00005FF0398F2E72068C0F3C10022FA00F04B
:1045F000ECE72268D2056ED561456CD11846E5E737
:104600004145E3D00020E1E74846DFE7DBF8001052
:1046100001F46001B1F5800F3BD005DC00294AD0E0
:10462000B1F5001FEED174E0B1F5C00FECD0B1F5DB
:10463000000FE7D162E0DBF8001001F0E061B1F1BA
:10464000007F26D004DCB1B3B1F1807FDAD160E025
:10465000B1F1407FD8D0B1F1806FD3D14EE000E00E
:104660001BE0DAF8001001F4E041B1F5005F10D072
:1046700008DC01B3B1F5805FC4D14AE035E058E011
:1046800065E088E0B1F5405FBED0B1F5804FB9D1AB
:1046900034E020688000B5D5A0E7DAF8001001F416
:1046A000E021B1F5403F6DD006DC61B149457BD0DA
:1046B0007145A7D158E07BE0B1F5802F66D0B1F508
:1046C000A02F9FD10DE000F06FFE7FE76846FFF757
:1046D000EBFD01987AE728E003A8FFF787FE04982E
:1046E00074E7216889038AD48CE7DBF8001011F4A1
:1046F00040310ED0494510D0714583D131682568CD
:1047000001F040516D077FF574AF00297FF471AF60
:1047100069E720680001E7D55BE720688000E3D502
:1047200003A8FFF763FE059850E722689203DBD5E4
:1047300066E7306810F480303AD04845D4D120681C
:104740000001D1D56846FFF7AFFD02983EE7DBF8E0
:10475000001001F0E041B1F1405F13D008DC71B10D
:10476000614521D04145BFD120688000B4D449E7DC
:10477000B1F1804F0AD0B1F1A04FB2D042E7FFF7BC
:10478000DDFC23E720684007AED52CE72068C00594
:10479000AAD533E708E0DAF8001011F04051A0D0B4
:1047A000614505D041459FD1206800018ED429E79D
:1047B0002068800198D505E7504402580090D00346
:1047C00000366E010080BB00004402582DE9FE4F08
:1047D0000546DFF800A450F8081B0024FD4FC9432C
:1047E000019005F1280026460AF1240A00900801EC
:1047F0001DD4686E50B1B0F5801F0CD0B0F5001F0D
:104800000ED0B0F5401F1ED001240FE0386840F4F0
:104810000030386017E00198022102F0B5FA03E099
:104820000098022102F040FB04000CD026462888A4
:10483000C043C00523D4A86D05281ED2DFE800F0D0
:104840000C11161B1B006A6EDAF8001021F44011DF
:104850001143CAF80010EAE7386840F400303860C5
:1048600009E00198002102F08FFA03E0009800218E
:1048700002F01AFB0446C4B100E001242646288851
:10488000DFF85083C04308F12C0840052FD4D5F839
:10489000A400B0F5C00F28D010DCB8B1B0F5001FEF
:1048A00019D0B0F5800F0FD11AE0AA6DDAF8001018
:1048B00021F007011143CAF80010E0E7B0F5000F3E
:1048C00013D0B0F5200F10D001240FE0386840F469
:1048D0000030386009E00198002102F055FA03E049
:1048E0000098002102F0E0FA044694B12646288898
:1048F000C043000530D4D5F8A800B0F1407F29D0DE
:1049000011DCC0B1B0F1807F1AD0B0F1007F10D1BE
:104910001BE0D5F8A420D8F8001021F46001114361
:10492000C8F80010E3E7B0F1806F13D0B0F1A06FCA
:1049300010D001240FE0386840F40030386009E0FE
:104940000198002102F020FA03E00098002102F013
:10495000ABFA044694B126462868DFF878B2C04323
:104960000BF1200B80011FD4E86CD8B110280FD0B8
:10497000202812D0302815D0012414E0D5F8A82022
:10498000D8F8001021F0E0611143C8F80010E3E707
:10499000386840F40030386004E00198022102F0E9
:1049A000F3F9044674B126462888C043C0042BD4CA
:1049B000E86DB0F5005F20D00DDCA0B1B0F5805FF0
:1049C0000FD115E0EA6CDBF8001021F03001114343
:1049D000CBF80010E8E7B0F5405F13D0B0F5804F9A
:1049E00010D001240FE0386840F40030386009E04E
:1049F0000198002102F0C8F903E00098002102F0BC
:104A000053FA04468CB126462888C043800429D432
:104A1000286EB0F5403F23D010DC08B3B0F5803FDE
:104A200014D0B0F5003F0FD115E0EA6DDAF80010B0
:104A300021F4E0411143CAF80010E5E7B0F5802FFA
:104A40000ED0B0F5A02F0BD001240AE0019801216F
:104A500002F09AF903E00098012102F025FA0446D9
:104A600094B126462888C04340042AD4D5F8AC0027
:104A7000B0F1405F23D010DC08B3B0F1805F14D0F8
:104A8000B0F1005F0FD115E02A6EDAF8001021F4C2
:104A9000E0211143CAF80010E4E7B0F1804F0ED0D6
:104AA000B0F1A04F0BD001240AE00198012102F0DF
:104AB0006BF903E00098012102F0F6F9044674B1A5
:104AC00026462888C04300041FD4E86ED8B1B0F150
:104AD000805F0ED0B0F1005F10D0012414E0D5F853
:104AE000AC20D8F8001021F0E0411143C8F80010C4
:104AF000E7E7386840F40030386004E001980121AD
:104B000002F042F9044674B126462868C043C00149
:104B10001ED4A86CD0B101280ED0022811D00328D1
:104B200014D0012413E0EA6EDAF8001021F04051AD
:104B30001143CAF80010E8E7386840F400303860E4
:104B400004E00198022102F01FF904466CB12646E8
:104B50002868C043400255D41F48016841F4807161
:104B60000160FEF7C9FC81460EE0AA6CDBF800107C
:104B700021F003011143CBF80010E9E7FEF7BCFC7C
:104B8000A0EB090064283BD813480068C005F5D5A0
:104B9000BCBBDFF84090B5F8B01009F14409D9F872
:104BA000000001F4407100F44070884211D0D9F83F
:104BB0000010D9F8002021F4407142F48032C9F885
:104BC0000020D9F8002022F48032C9F80020C9F86A
:104BD000001003E02C44025800480258D5F8B000F9
:104BE000B0F5807F19D1FEF787FC029011E000BF7D
:104BF000FEF782FC0299411A41F28830814208D9BD
:104C0000032426462878DFF81494C043C00721D037
:104C10003CE0D9F800008007EAD5D5F8B010C1F320
:104C200001200328FE480DD0016821F47C51016069
:104C3000B5F8B020D9F80010C2F30B021143C9F83F
:104C40000010DFE7F74A036802EA111223F47C51EF
:104C50001143ECE7A86F182816D005DCA0B108288E
:104C600008D0102804D10AE020280DD028280BD025
:104C700001240AE00198012102F086F803E000987F
:104C8000012102F011F9044664B126462878C04398
:104C900080071ED4686F062819D2DFE800F0160CD2
:104CA00011161616AA6FD9F8001021F03801114319
:104CB000C9F80010EAE70198012102F065F803E065
:104CC0000098012102F0F0F804467CB100E00124D4
:104CD00026462878C04340071FD4D5F89000062800
:104CE00019D2DFE800F0160C111616166A6FD9F803
:104CF000001021F007011143C9F80010E9E70198FD
:104D0000012102F041F803E00098012102F0CCF803
:104D10000446A4B100E0012426462878C04380065A
:104D20002BD4D5F88C00B0F1405F24D011DC10B347
:104D3000B0F1805F15D0B0F1005F10D116E0D5F86A
:104D40009020D8F8001021F007011143C8F8001096
:104D5000E3E7B0F1804F0ED0B0F1A04F0BD00124AB
:104D60000AE00198002102F00FF803E00098022108
:104D700002F09AF8044694B126462878C0434006CB
:104D80002BD4D5F89800B0F5406F24D011DC10B3C7
:104D9000B0F5806F15D0B0F5006F10D116E0D5F8E2
:104DA0008C20D9F8001021F0E0411143C9F800101F
:104DB000E3E7B0F5805F0ED0B0F5A05F0BD0012423
:104DC0000AE00198002101F0DFFF03E000980221D2
:104DD00002F06AF8044694B126462878C0430006DB
:104DE0002BD4D5F89C00B0F5C04F24D011DC10B303
:104DF000B0F5005F15D0B0F5804F10D116E0D5F8B2
:104E00009820D8F8001021F4E0511143C8F80010A0
:104E1000E3E7B0F5004F0ED0B0F5204F0BD00124E2
:104E20000AE00198002101F0AFFF03E000980221A1
:104E300002F03AF8044654B126462878C0430007E9
:104E40001ED4D5F88000B0F5805F0AD00FE0D5F809
:104E50009C20D8F8001021F460411143C8F80010DC
:104E6000EBE70098022102F01FF800B10126D5F807
:104E70008020D9F8001021F440511143C9F80010E6
:104E80002878C043C00613D4D5F89400B0F5807FCD
:104E900005D10098022102F007F800B10126D5F8EB
:104EA0009420D8F8001021F440711143C8F8001084
:104EB0002868C043000316D4D5F8A00038B1B0F577
:104EC000803F09D0B0F5003F0BD001240AE00198E3
:104ED000002101F059FF03E00098022101F0E4FFF6
:104EE00004468CB126462868C043400322D4D5F836
:104EF0008400B0F5801F11D0B0F5001F13D0B0F5BD
:104F0000401F15D0012414E0D5F8A020D8F80010D7
:104F100021F440311143C8F80010E4E7386840F448
:104F20000030386004E00098012101F0BDFF044624
:104F30005CB126462868C043C0031CD4286D70B1FC
:104F4000B0F5803F10D0012414E0D5F88420D9F8C2
:104F5000001021F440111143C9F80010EAE7386845
:104F600040F40030386004E00198022101F00CFFA9
:104F70000446DCB126462868C043800005D400986A
:104F8000022101F091FF00B101262868C04380038F
:104F90001BD4E86FB8B1B0F5807F10D0B0F5007FBA
:104FA00011D0B0F5407F0ED001240DE02A6DDBF862
:104FB000001021F480311143CBF80010DBE7386892
:104FC00040F4003038607CB326462868C043C002F5
:104FD00007D42A6FDAF8001021F000411143CAF813
:104FE00000102868C043800207D4AA6EDAF80010C7
:104FF00021F080711143CAF800102868C0434000B6
:1050000009D40748016821F4004101600168D5F81E
:10501000B420114301602868C04306E0544402589C
:1050200010440258CFFFFF001DE007D46A6DDBF883
:10503000001021F040511143CBF800102868C04304
:10504000000208D4D5F88820D9F8001021F44001D6
:105050001143C9F8001028790024C04300F0010072
:10506000204309D00EE0EA6FD9F8001021F4407116
:105070001143C9F80010A8E70198002101F084FE4F
:1050800000B106462879C04300F00200204305D154
:105090000198012101F078FE00B106462879C0434D
:1050A00000F00400204305D10198022101F06CFEBC
:1050B00000B106462879C04300F00800204305D11E
:1050C0000098002101F0F0FE00B106462879C043A7
:1050D00000F01000204305D10098012101F0E4FE0A
:1050E00000B106462879C04300F02000044304D1F3
:1050F0000098022101F0D8FE00B916B10120BDE8E8
:10510000FE8F0020FBE700002DE9F05F04000F4652
:105110007ED0DFF83882D8F8000000F00F00B842E7
:105120000CD2D8F8001021F00F013943C8F8001054
:10513000D8F8000000F00F00B84269D12078844D03
:1051400040070AD52069296801F07001884204D916
:10515000296821F070010143296020787C4E361DBA
:1051600000070AD56069316801F07001884204D9EE
:10517000316821F07001014331602078C0060AD502
:10518000A069316801F4E061884204D9316821F4F2
:10519000E061014331602078DFF8B4B180060BF1A3
:1051A000080B0CD5E1695846DBF8002002F07002CC
:1051B000914204D9026822F070020A43026020780A
:1051C00080070AD5E068296801F00F01884204D9F8
:1051D000296821F00F01014329602078C0073ED0E3
:1051E0005B49A2682868183920F470601043286071
:1051F0006068022818D0032819D00968012819D03E
:10520000490700294ADADFF848A1AAF1080A00E0B4
:1052100044E0DAF8002022F007020243CAF8002036
:10522000FEF76AF9814612E009688903E9E709682F
:105230008901E6E7C905E4E7FEF75EF9A0EB09019D
:1052400041F28830814202D90320BDE8F09F6168B5
:10525000DAF8000000F03800B0EBC10FECD1207894
:1052600080070AD5E068296801F00F01884204D25E
:10527000296821F00F0101432960D8F80010404649
:1052800001F00F01B9420BD9016821F00F01394338
:105290000160006800F00F00B84201D00120D4E79F
:1052A000207840070AD52069296801F070018842FA
:1052B00004D2296821F07001014329602078000799
:1052C0000AD56069316801F07001884204D2316802
:1052D00021F07001014331602078C0060AD5A06931
:1052E000316801F4E061884204D2316821F4E06160
:1052F00001433160207880060CD5E1695846DBF81F
:10530000002002F07002914204D2026822F0700282
:105310000A43026000F06CF80E492A682B68C2F359
:10532000032203F00F038A5CC95C02F01F0201F044
:105330001F01D040084A20FA01F1116007490860B6
:1053400007480068BDE8F05FFEF712B90020005280
:105350001844025876A10008180000241400002404
:105360000C00002430B500F043F80B4A0B490C4BFD
:1053700015681468C5F3032204F00F048A5C095D04
:1053800002F01F0201F01F01D040064A20FA01F18D
:1053900019601060084630BD1844025876A1000814
:1053A000180000241400002400B5FFF7DBFF0549B6
:1053B0000968054AC1F30211515C01F01F01C840A0
:1053C00000BD00001C44025876A1000800B5FFF79C
:1053D000C9FF05490968054AC1F30221515C01F082
:1053E0001F01C84000BD00001C44025876A10008FF
:1053F000454970B545480968434B103B11F03802E8
:1054000008D00111082A03D0102A0BD0182A0BD07B
:10541000084670BD19688906FBD51968C1F3C1013A
:10542000C84070BD3A4870BD3749374D18310C1D22
:1054300024350A68096826682D6802F0030406F01E
:105440000102C1F30511C5F3CC0515FB02F200EE14
:10545000102AB8EE400AE9B32F4ADFED2E0AB7EE64
:10546000001A6CB1DFED2D1A012C01D0022C43D0B3
:1054700002EE101A1068F8EE422A81EEA22A1EE00F
:105480001C68A40611D51B6801EE901A1168C3F3BD
:10549000C103F8EE612AD84001EE900AC1F308007A
:1054A000F8EE611A81EEA22A0BE001EE901ADFED10
:1054B0001C2A00BFF8EE611A106882EEA12AC0F320
:1054C000080001EE900AF8EE611A40EE201A31EE63
:1054D000810A00E015E022EE000A1068C0F34620C1
:1054E000401C00EE900AF8EE600A80EE201ABCEE36
:1054F000C10A10EE100A70BD01EE901ADFED092A04
:10550000D8E7002070BD0000104402580090D0037E
:1055100000366E0100000039304402580024744AFD
:105520000024744C001BB74B2DE9F05F04007DD0C4
:10553000FF4F2078FE4D1837DFF8F483103DC00789
:1055400048D0D8F80000396800F03800102815D08D
:10555000182803D101F0030002280FD06068B0F5CD
:10556000803F12D010B1B0F5A02F18D0286820F4D9
:1055700080302860286820F4802009E028688003B3
:1055800028D560680028D2D024E0286840F4803014
:105590002860606888B1FDF7AFFF064609E028681B
:1055A00040F480202860F0E7FDF7A6FF801B642808
:1055B0007ED828688003F7D50CE0FDF79DFF0646EE
:1055C00005E000BFFDF798FF801B6428F0D828682D
:1055D0008003F7D42078800756D5D8F80000DFF88C
:1055E0005093396810F03800A9F10C090ED0182832
:1055F00001D188070AD0E068A8B3296821F0190111
:1056000001432960FDF778FF064628E02868400737
:1056100002D5E06800288AD0E168286820F01900E7
:1056200008432860FDF768FF064606E0D2E000BFA9
:10563000FDF762FF801B0228BAD828684007F7D51B
:10564000217CD9F8002022F0FE4242EA0161C9F82B
:10565000001019E0FDF750FF801B0228A8D8286829
:105660004007F7D5ECE7FFE7286820F00100286045
:10567000FDF742FF064604E0FDF73EFF801B0228CF
:1056800096D828684007F7D42078C00646D5D8F8C1
:105690000000DFF89C92396800F03800A9F1040995
:1056A000082812D0182805D101F00300012800E0D5
:1056B000CEE00AD0E0690028286820D040F08000C1
:1056C0002860FDF719FF064615E02868C00502D5D9
:1056D000E06980287ED194F82010D9F8002022F0CB
:1056E0007C5242EA0161C9F8001017E0FDF704FF9F
:1056F000801B0228A0D82868C005F7D5EBE720F06A
:1057000080002860FDF7F8FE064604E0FDF7F4FE91
:10571000801B022890D82868C005F7D4207800079D
:1057200029D583486169643000298146016811D018
:1057300041F001010160FDF7DFFE064605E000BF14
:10574000FDF7DAFE801B022888D8D9F80000800710
:10575000F6D510E021F001010160FDF7CDFE06460F
:1057600005E000BFFDF7C8FE801B022870D8D9F8FD
:1057700000008007F6D42078800623D5A069002891
:10578000286810D040F480502860FDF7B5FE06462A
:1057900005E000BFFDF7B0FE801B022858D828683E
:1057A0008004F7D50EE020F480502860FDF7A4FEB9
:1057B000064604E0FDF7A0FE801B022848D82868B2
:1057C0008004F7D42078400751D5DFF86891D9F8E4
:1057D000001000E015E141F48071C9F80010FDF7F8
:1057E0008BFE064605E000BFFDF786FE801B6428A1
:1057F0002ED8D9F80000C005F6D54D4EA068603609
:1058000001280AD008B1052813D0306820F0010023
:105810003060306820F0040002E0306840F00100A1
:105820003060A06841F2883A98B1FDF765FE814684
:105830000AE0306840F004003060EEE7FDF75CFEFF
:10584000A0EB0901514503D830688007F6D50EE07A
:1058500072E0FDF751FE814606E000BFFDF74CFE09
:10586000A0EB0901514567D830688007F6D4606A1B
:1058700000287CD0DFF8B8A0D8F800100AF1200A80
:105880004FF6F87B0AF10408C1F3C2010329AAF11B
:1058900004096DD00228286820F08070286003D0A9
:1058A000FDF72AFE044681E0FDF726FE064604E0E9
:1058B000FDF722FE801B022875D828688001F7D4E6
:1058C000E26A40F2F331386854F8283F884340EAEE
:1058D000021018433860217B4FF4FE0C22894FF0F0
:1058E000FE47208A4902267D521E401EA1F5007106
:1058F00089B2C2F308021143761E0CEA004001434C
:10590000484607EA06621143CAF80010D9F80010A9
:1059100021F00101C9F80010D8F80030266A23EA06
:105920000B0343EAC601C8F80010D9F8001004E0E0
:10593000104402580048025835E0A26921F00C01D9
:105940001143C9F800100168E26921F00201114316
:105950000160016841F480310160016841F4003167
:105960000160016841F480210160016801E06CE0A0
:1059700020E041F001010160286840F0807028605B
:10598000FDF7BAFD044604E0FDF7B6FD001B022852
:1059900009D828688001F7D557E000BFFDF7ACFDB6
:1059A000001B022802D90320BDE8F09F286880016F
:1059B000F4D44AE039680128DAF8000021D0A26A5C
:1059C00001F0030393421CD1E26AC1F305118A423C
:1059D00017D1216BC0F30802491E8A4211D1616BB5
:1059E000C0F34622491E91420BD1A16BC0F306427F
:1059F000491E914205D1E16BC0F30660491E814208
:105A000001D00120D0E7A16C4646D8F80000C0F3D1
:105A1000CC00814219D0D9F800004D4620F0010099
:105A2000C9F80000FDF768FD4FEA0007FDF764FDC7
:105A3000B842FBD0A26C306820EA0B0040EAC200FA
:105A40003060286840F0010028600020ACE70000CA
:105A50002DE9F04104001D4616460F4603D0D4F848
:105A6000880018B108E00120BDE8F081002084F82A
:105A70008400204600F038FD2420C4F88800206807
:105A8000016821F001010160A06A10B1204601F017
:105A9000F5FB204601F042FF0128E5D020687105A2
:105AA0000D4A41EA0541836843F4804383602068DE
:105AB000836823F400433B438360206803681340FA
:105AC0000B4303602068016841F00101016020463A
:105AD000BDE8F04101F036BCFFFF00FC2DE9F047C6
