:020000040800F2
:1000000088350020B10200087F510008C34D000868
:100010007D510008AD1700081B79000800000000A2
:100020000000000000000000000000001D54000857
:10003000C919000800000000F15200082954000806
:10004000CB020008CB020008CB020008CB0200085C
:10005000CB020008CB020008CB020008CB0200084C
:10006000CB020008CB020008CB020008CB0200083C
:10007000CB020008CB020008CB020008CB0200082C
:10008000CB020008CB020008CB020008311900089F
:1000900025190008CB020008CB020008CB0200089B
:1000A000CB020008CB020008CB020008CB020008FC
:1000B000CB020008CB020008CB020008CB020008EC
:1000C000CB020008CB020008CB020008CB020008DC
:1000D000CB020008CB020008CB020008CB020008CC
:1000E000CB020008CB020008CB020008CB020008BC
:1000F000CB020008CB020008CB020008CB020008AC
:10010000CB020008CB020008CB020008CB0200089B
:10011000CB020008CB020008CB020008CB0200088B
:10012000CB020008CB020008CB020008CB0200087B
:10013000CB020008CB020008CB020008CB0200086B
:10014000CB020008CB020008CB0200088151000856
:10015000CB020008CB020008CB020008D55C0008E7
:10016000CB020008CB020008CB020008CB0200083B
:10017000CB020008CB020008CB0200080000000000
:10018000CB020008CB020008CB0200088157000810
:10019000CB020008CB020008CB020008CB0200080B
:1001A0000000000000000000CB02000800F002F890
:1001B00000F06FF80AA090E8000C82448344AAF192
:1001C0000107DA4501D100F064F8AFF2090EBAE890
:1001D0000F0013F0010F18BFFB1A43F0010318477B
:1001E000DC890000FC8900000A444FF0000C10F884
:1001F000013B13F0070408BF10F8014B1D1108BFA5
:1002000010F8015B641E05D010F8016B641E01F844
:10021000016BF9D113F0080F1EBF10F8014BAD1C94
:100220000C1B09D16D1E58BF01F801CBFAD505E0B2
:1002300014F8016B01F8016B6D1EF9D59142D6D30C
:10024000704700000023002400250026103A28BF34
:1002500078C1FBD8520728BF30C148BF0B60704738
:10026000662908F00F80642900F00081732900F0EE
:10027000C684002070471FB507F0FFFF00F0C4FCE4
:1002800004000020002107F06BFFE0601FBD10B5E7
:1002900010BD00F0B9FD1146FFF7EDFF07F066FC59
:1002A00000F0D7FD03B4FFF7F2FF03BC00F01AFE25
:1002B0000948804709480047FEE7FEE7FEE7FEE7FA
:1002C000FEE7FEE7FEE7FEE7FEE7FEE70448054936
:1002D000054A064B70470000BD540008AD010008F8
:1002E000882F0020883500208831002088310020A8
:1002F00053EA020C00F069802DE9F04B4FF0000644
:10030000002B1FBFB3FA83F503FA05F424FA05F6B0
:100310005E4012BF1643B2FA82F502FA05F4C5F147
:1003200020051EBF22FA05FC44EA0C04203556EADB
:10033000044C4FEA144418BF641C4FF000084FF0FF
:100340000009904271EB030C39D3002919BFB1FAAF
:1003500081F701FA07F6B0FA80F700FA07F6C7F15D
:1003600020071EBF20FA07FC46EA0C062037B6FB22
:10037000F4FCA7EB0507103F07F01F0BCBF120069D
:100380000CFA0BFB2CFA06F644BFB3460026202FCE
:10039000A4BF5E464FF0000B5BEA060C08BF4FF0AF
:1003A000010B19EB0B09ABFB027C48EB0608C01BE9
:1003B00006FB02CC0BFB03CC71EB0C01C1E70B4637
:1003C000024641464846BDE8F08B13B54FF00000A9
:1003D0004FF00001AFF30080BDE81C407047000003
:1003E0000FB47CB50C0009AA009001D02044401E37
:1003F000084B7B4469460190089800F0CEFB054607
:100400001CB10020694600F0DBFB28467CBC5DF88F
:1004100014FB0000D507000070B50C460546012A04
:1004200005D02878800600D5EA69002302E0012380
:1004300005E05B1C934202D2E05C0028F9D1A86978
:10044000E618C01AA861286A184428622846AFF343
:10045000008004E0D5E9012114F8010B9047B44273
:10046000F8D32846AFF3008070BD00002DE9F041BD
:100470000646002410687529314616A510D0AFF342
:100480000080002802DA404213A507E031688A079D
:1004900001D512A502E0490704D511A5012401E008
:1004A000AFF3008000210A2206F1240709E0B0FB27
:1004B000F2FCB0FBF2F302FB1C003030785418461B
:1004C000491C0028F3D123462A463046BDE8F041B6
:1004D00000F0F6B8000000002D0000002B00000026
:1004E000200000002DE9F05F894604464FF0000A25
:1004F000DFF874B1FB44C0F820A02046E1688847CB
:10050000002874D0252806D0D4E901219047206A1C
:10051000401C2062F1E700265F462046E1688847DC
:100520002028054607DB312D05D2781910F8200C5C
:1005300008B10643F1E7B00701D526F00406C4F878
:100540001CA00027C4F818A02A2D09D0284607F0BF
:100550000DFA38B304EB8708303DC8F8185019E09D
:1005600059F8041B204604EB87029161E168884733
:10057000012F054618D1E069002820DA26F0200670
:100580001DE0D8F8180000EB800005EB4000303883
:10059000C8F818002046E1688847054607F0E6F9E4
:1005A0000028EED1012F0AD02E2D08D12046E16877
:1005B00088477F1C0546022F46F02006C4DBA06951
:1005C000002803DA404246F00106A061F00701D09E
:1005D00026F010066C2D0BD0682D09D04C2D39D08B
:1005E0006A2D35D0742D35D07A2D33D016E038E011
:1005F000E1682F4620468847B842054609D16C2F4E
:1006000026D04FF48060E1680643204688470546BF
:1006100004E06C2F1AD04FF4807006430DB3A5F19F
:100620004100192802D8203546F400664A4629467A
:10063000204626604E46FFF713FE80B101280BD0FE
:10064000F61D26F0070000F1080956E74020E4E710
:100650008020D8E70020D6E706F104094DE72846B8
:1006600052E7206ABDE8F09F1C8600004FF00002B0
:1006700000B5134694469646203922BFA0E80C5098
:10068000A0E80C50B1F12001BFF4F7AF090728BF73
:10069000A0E80C5048BF0CC05DF804EB890028BFEF
:1006A00040F8042B08BF704748BF20F8022B11F018
:1006B000804F18BF00F8012B704770477047704794
:1006C0002DE9F0470D4699469246044600F124086C
:1006D0000168880604D5E06921F01001216000E07E
:1006E0000120A84201DD471B00E00027A1697A191B
:1006F00002EB0900081AA0612078C00602D4204647
:10070000AFF30080002608E0D4E901211AF80600C2
:100710009047206A401C761C20624E45F4DB20780E
:10072000C0060AD52046AFF3008006E0D4E90121D7
:1007300030209047206A401C2062381EA7F1010734
:10074000F4DC07E0D4E9012118F805009047206A9D
:10075000401C2062281EA5F10105F3DC2046AFF302
:1007600000802078000602D50220BDE8F087012035
:10077000FBE770472DE9FF4F0C461E464FF0FF3751
:100780008BB0D2E90001DDF860800A908A46C1F39F
:100790000A5505B93D46002108464FF00000BAF160
:1007A000000F00F4400005DA00EB80004FF4400138
:1007B00001EA50004FEA9059B9F1010F00DDB94646
:1007C0000A9850EA4A000ED044F61050A5F2FF35C0
:1007D00045432F14B8F1000F1ED07542291E1EDDAF
:1007E000C9F100021CE0B8F1010F4FF0000001D088
:1007F000302103E0F24305E02154401CB042FBDB12
:1008000030460022002121540B99C1F80880C1E92B
:1008100000200FB0BDE8F08FBD1B6D1CDEE74A461F
:1008200000DA694206A800F079FA06AB93E80700FF
:1008300003AB83E8070050460A9900F05AFB8DE8A5
:100840000700A0F500501F3800900398002D0ADD26
:1008500042F21F014A460844002303A90390684658
:1008600000F0C3FD09E0A0F500504A461F38002300
:1008700003A90390684600F0CDFD8DE80700000451
:10088000000C03D04FF0FF30410800E01046B8F1F3
:10089000000F03D00022009215461EE0751E05D4FD
:1008A00000F0B6F9303262556D1EF9D5B34601221B
:1008B000084302D000227F1C04E02078302801D1B8
:1008C00000227F1E002A099784D01DE0112D07DA2F
:1008D00000F09EF9303262556D1C50EA0102F5D1EC
:1008E000084302D00098C8B10EE00021681E05E060
:1008F000235C625C63542254401E491C8142F7DB36
:10090000AB46A81B401E0990002004F80B000B9872
:10091000099AC0F80880C0E9002B7AE711264FF049
:10092000000857E72DE9F04F88460446D21D22F013
:10093000070191B0D1E90001CDE90A0106F0EEFF0F
:1009400002460B98C00F01D02D2007E020688107D8
:1009500001D52B2002E0202101EAC000032A0990E2
:1009600001D0072A05DB03464146204600F096F9F0
:100970000BE12078800601D5E06900E00620B8F19F
:10098000650F814606D0B8F1660F18D0B8F1670F31
:1009900070D131E00020B9F1110F009001DB11237B
:1009A00001E009F101030AAA01A90CA8FFF7E2FE80
:1009B000DDE90C70002609F10105834647E00120BE
:1009C0004B4600904FF000470AAA01A90CA8FFF778
:1009D000D1FEDDE90DB00C995D46002610B909F194
:1009E00001000D18B9EB050003D4C0F1FF3609F181
:1009F0000105A5EB09002BE0B9F1010F01DA4FF079
:100A000001090020B9F1110F0090484601DD1123C2
:100A100000E003460AAA01A90CA8FFF7ABFEDDE936
:100A20000C704D4600268346207800070AD4AB455B
:100A300000DA5D4601A8012D04DD411911F8011C01
:100A4000302907D04F4502DA17F1040F04DA0120EC
:100A500082460FE06D1EEEE7002F02DCED1B3E44E8
:100A600003E0781CA84200DD7D1CB81B00F1010AE0
:100A70004FF000472078000703D4AA4501DB4FF070
:100A8000FF3A0021B7F1004F0DF143088DF84310F4
:100A900024D002202B23002F01DA7F422D230A21AC
:100AA000021EA0F1010000DC5FB197FBF1FC97FB97
:100AB000F1F201FB1C7C17460CF1300C08F801CD5B
:100AC000EEE7A8F1010003702188090501D5452151
:100AD00000E06521A0F1010800F8011C09980FA9A8
:100AE000A1EB0807FF1D00B10120411901EBEA70DD
:100AF000A1693844081A401EA0612078C00602D4BB
:100B00002046AFF30080099828B1D4E9012190472D
:100B1000206A401C20622078C00622D52046AFF310
:100B200000801EE0002E04DBB34502DD01A8805DDD
:100B300000E03020D4E901219047206A401C206267
:100B4000761CAAF101005FEA000A0AD100F05CF805
:100B5000C0680168405CD4E901219047206A401CCC
:100B60002062281EA5F10105DCDC07E0D4E90121A3
:100B700018F8010B9047206A401C2062381EA7F12C
:100B80000107F3DC2046AFF30080032011B041E6FB
:100B900001694A1C02610878704700B58FB0CDE941
:100BA00001310021059105497944CDE90310114631
:100BB0006846FFF797FC0FB000BD0000E5FFFFFFA0
:100BC0000A6802F8010B0A607047D1E900239A42D3
:100BD00002D2531C0B601070704710B5436913B1FB
:100BE000AFF3008001E0FFF717FC012010BD127881
:100BF00000F124010A7000224A700122EDE7116819
:100C00004FF0FF32E9E7000000487047482F00200E
:100C100030B5B0F10A024FEA900E71F100034EEACE
:100C2000817EB0EB0E0061EB91014FEA101E4EEA9F
:100C3000017E10EB0E0041EB11114FEA102E4EEA2F
:100C4000016E10EB0E0041EB11214FEA104E4EEAFF
:100C5000014E10EB0E0041EB1141401841F1000133
:100C60004FEAD00040EA41704FEAD10110EB800515
:100C70004FEA810444EA907444EB01046D1944EB9B
:100C80000404521BA3414FF0000348BF0A3200D5B1
:100C900030BD401C41F1000130BD00002DE9F041A4
:100CA0001F46044603260168072A01F4006004DB9E
:100CB00008B116A505E016A503E008B115A500E0EA
:100CC00015A521F010002060A069C01EA0610FB121
:100CD000401EA0612046AFF300804FB1D4E901214E
:100CE00038469047206A401C2062C01C206206E003
:100CF000206AFAE7D4E9012115F8010B9047761E26
:100D0000F8D22046AFF30080BDE8F0814E414E009E
:100D10006E616E00494E4600696E66002DE9F0472F
:100D2000814616468AB0354878440DC88DE80D00D6
:100D300032487844801C03AC0DC884E80D0041F6AD
:100D40009B300844372190FBF1F290FBF1F5A5F1BF
:100D5000800501FB12041B3C02D56442012000E027
:100D60000020DFF898A080460027FA44AAF1BE0AC6
:100D70000EE0E0070AD03246684607EB4701012340
:100D80000AEB810100F046FB8DE8070064107F1C30
:100D9000002CEED1194F7F44AE3F19E0E80715D083
:100DA00007EB04100DF1180A90E80E008AE80E0017
:100DB000C068F04201D1981908903246012306A973
:100DC00003A800F027FB03AB83E807006D10641C49
:100DD000002DE3D14FF0010332466946B8F1000F10
:100DE00003A802D000F001FB01E000F013FBC9E909
:100DF0000001C9F808200AB0BDE8F087787E00003D
:100E000000487047282F00207546FFF7F9FFAE46CF
:100E100005006946534620F00700854618B020B506
:100E2000FFF754FABDE820404FF000064FF00007EE
:100E30004FF000084FF0000B21F00701AC46ACE882
:100E4000C009ACE8C009ACE8C009ACE8C0098D46EF
:100E5000704710B50446AFF300802046BDE810404F
:100E6000FFF720BA4FF0013C50F8042B51F8043B37
:100E70009A4221D1A2EB0C03934313EACC1317D16E
:100E800050F8042B51F8043B9A4215D1A2EB0C0305
:100E9000934313EACC130BD150F8042B51F8043BC5
:100EA0009A4209D1A2EB0C03934313EACC13DBD093
:100EB0004FF00000704700BFD01A01BAB1FA81F1BB
:100EC00001F0180122FA01F0CB40C1F12001DBB2A0
:100ED000C0B2C01A2CFA01F3D11A914311EAC3111E
:100EE000E6D1704701491820ABBEFEE7260002009C
:100EF00070475FEA400C08BF91F0000F4FEA8C2367
:100F00004FEAC12243EA51514FEA1C5018BF00F585
:100F1000F0404FEA300018BF41F000415FEA6C5CDE
:100F200000F02980BCF1FF3F08BF40F080407047CF
:100F3000130C06BF12044FF0100C4FF0000C130EF0
:100F400004BF12020CF1080C130F04BF12010CF1C4
:100F5000040C930F04BF92000CF1020CD30F04BFDA
:100F600052000CF1010C11464FF00002A0F11F00DD
:100F7000A0EB0C00704711F0004F08BF704731F034
:100F800000413FF4D5AF0B0C06BF09044FF0100C25
:100F90004FF0000C0B0E04BF09020CF1080C0B0FF4
:100FA00004BF09010CF1040C8B0F04BF89000CF184
:100FB000020CCB0F04BF49000CF1010CCCF1200353
:100FC000A0EB0C0022FA03F302FA0CF241EA03014F
:100FD00000F10100704720F07F4C80EA030023F00D
:100FE0007F47ACEB070303F57C5300F0004003F1AF
:100FF000FF032DE980494FEA154B09B44FEA14432A
:1010000025EA0B4E24EA03480FF2042606EB1327C9
:1010100049083E785FEA320203FB0667C7F500071E
:1010200007FB06F64FEA54374FEAD64606F10206AA
:1010300007FB066CCCF1005C4FEA1C472CEA074C1E
:1010400007FB06F40CFB06F504EB15464FEA961673
:1010500034BF00204FF000404FEAD13706FB07FCB9
:101060004FEA1C4C0CFB0BF7D21B03FB0CF761EB9C
:1010700007010CFB0EF7B0EB074072EB17420CFBBD
:1010800008F734BFA2EB0742B2EB074261EB17410E
:101090004FEA0C444FEA910706FB07FC4FEA1C4C51
:1010A0000CFB0BF7B0EBC74072EB573203FB0CF7AE
:1010B00034BFA2EBC742B2EBC74261EB57310CFB26
:1010C0000EF7B0EBC70072EB57720CFB08F734BF9A
:1010D000A2EBC702B2EBC70261EB5771039F4FEA65
:1010E000816141EA921104EBCC044FEAD1374FEA17
:1010F000826206FB07FC42EA90124FEA80604FEAE8
:101100001C4C0CFB0BF7D21B03FB0CF761EB07012C
:101110000CFB0EF7B0EB074072EB17420CFB08F725
:1011200034BFA2EB0742B2EB074261EB17414FEA33
:101130008C554FEA910704EB9C2406FB07FC4FEA11
:101140001C4C0CFB0BF7B0EBC74072EB573203FBA8
:101150000CF734BFA2EBC742B2EBC74261EB573189
:101160000CFB0EF7B0EBC70072EB57720CFB08F7E5
:1011700034BFA2EBC702B2EBC70261EB577115EBAC
:101180004C254FEA816141EA92114FEA82624FEAAF
:10119000D13742EA901206FB07FC44F100044FEA03
:1011A00080604FEA1C4C0CFB0BF7D21B03FB0CF7C7
:1011B00061EB07010CFB0EF7B0EB074072EB174237
:1011C0000CFB08F734BFA2EB0742B2EB074261EB1E
:1011D000174115EB1C154FEA813141EA92414FEA64
:1011E000823242EA90424FEA80304FEA0C7644F174
:1011F000000448EA03434EEA0B484FF0000EB2EBFE
:10120000080C71EB030724BF624639464EEB0E0E05
:101210004FF0000B0018524149414BEB0B0BB2EB66
:10122000080C71EB03077BF1000B24BF62463946C3
:101230004EEB0E0E4FF0000B0018524149414BEBA4
:101240000B0BB2EB080C71EB03077BF1000B24BF17
:10125000624639464EEB0E0E51EA020718BF46F0C1
:10126000010616EB0E7655F1000254F1000103D58C
:10127000BDE88901BDE80088BDE88901BDE80048F6
:10128000B619524141EB0101A3F10103704780807F
:101290007F7E7D7C7B7A79787776767574737271D0
:1012A00071706F6E6E6D6C6C6B6A6A696868676688
:1012B00066656464636362616160605F5F5E5E5D1A
:1012C0005D5C5C5B5B5A5A5959585857575656558E
:1012D00055555454535352525251515050504F4FF0
:1012E0004F4E4E4D4D4D4C4C4C4B4B4B4A4A4A4940
:1012F0004949484848474747474646464545454483
:101300004444444343434342424242414141002B0F
:101310009C4630D477002BD01CB54FEA370703B476
:101320004FF010004FF01001BAF1000F06D0BCF1E1
:10133000000FDCBF40F0080040F008014FF0000053
:101340000FBCBDE810400BF1010BBBF1010F08BF52
:101350005FEA170722BF12F1010211F101014FF0FC
:10136000004143F1000300F0004043EA00007047F1
:10137000F9D35708D0E746EA064613F1400F4FEA83
:1013800016461FDD13F1200FDFBF16430A4600216A
:1013900020335B42BED0C3F1200746EA064602FA7C
:1013A00007F74FEA164646EA0706C3F1200722FA76
:1013B00003F201FA07F721FA03F14FF0000342EAC2
:1013C0000702A7E746EA020646EA06464FEA16463D
:1013D00046EA0106BCBF46EA0646360C4FF000035B
:1013E0004FF000024FF0000194E72DE9804C9A463F
:1013F000934670B491E8380007C831EA400C48BF02
:1014000034EA430C03D5FFF7E6FDFFF780FFF0BC9D
:10141000BDE8008C2DE9804C9A46934670B491E863
:10142000380007C810F0804F08BF13F0804F03D179
:1014300000F005F8FFF76BFFF0BCBDE8008C20F072
:101440007F4780EA030023F07F4C07EB0C03A3F5F2
:101450007C5300F00040A3F1FE0392F0000F00F077
:10146000B38095F0000F00F077802DE901494FEA35
:1014700011404FEA144621EA004800FB06FC24EA2A
:10148000064708FB06F607FB08F800FB07F718EB12
:1014900006484CEB164C4FEA124B18EB07484FEA44
:1014A00015464CEB174022EA0B4E0BFB06FC25EAD7
:1014B00006470EFB06F607FB0EFE0BFB07F71EEBBF
:1014C000064E4CEB164C4FF000061EEB074E4CEB55
:1014D000174B18EB0B0840F1000018EB0E0B58EB04
:1014E000000840F100008F1A4FF000013CBFC943D3
:1014F000661B14BFB5EB040C00213CBFC943F61BAF
:101500004FEA17444EEA8E0E27EA04454FEA1C477D
:1015100004FB07622CEA074C05FB07F70CFB05F6FA
:1015200004FB0CFC16EB074642EB174216EB0C468D
:1015300042EB1C421BEB060658EB0202414146EA15
:101540009E0601D5BDE80189B619524141EB010162
:10155000A3F10103BDE801894FEA14454FEA1147A1
:1015600024EA054621EA074C05FB07F406FB07F7CA
:101570000CFB06F105FB0CFC11EB074144EB174497
:101580004FEA124711EB0C4144EB1C4422EA074C92
:1015900005FB07F206FB07F70CFB06F605FB0CFC48
:1015A00016EB074642EB174216EB0C4642EB1C4586
:1015B0006A1854F1000148BF7047B619524141EB17
:1015C0000101A3F10103704795F0000F37D04FEAF6
:1015D00011424FEA144721EA024624EA074C02FB73
:1015E00007F106FB07F70CFB06F402FB0CFC14EBFF
:1015F000074441EB17414FEA154714EB0C4441EB0C
:101600001C4125EA074C02FB07F506FB07F70CFB1C
:1016100006F602FB0CFC16EB074645EB174516EBEE
:101620000C4645EB1C42121951F1000148BF7047AE
:10163000B619524141EB0101A3F1010370474FEA92
:1016400014454FEA114724EA054621EA074C05FBF9
:1016500007F106FB07F70CFB06F24FF0000605FB4F
:101660000CFC12EB074241EB174112EB0C4251EB21
:101670001C4148BF7047921841EB0101A3F10103DF
:1016800070470000464910B54A6822F440324A606B
:101690004A6843681A434A6001684A6822F48072C3
:1016A0004A6001684A68036942EA03224A600168A5
:1016B0004A6822F040724A6001684A6883681A43A7
:1016C0004A6001688A6822F400628A6001688A6858
:1016D000C3681A438A60816A6FF07062D142016800
:1016E0008A6822F070628A6001688A680CD0836A16
:1016F0001A438A6001688A6822F040528A60016851
:101700008A68C36A1A4301E022F040528A60016885
:101710008A6822F002028A6001688A68037E42EACF
:1017200043028A6090F82010002901684A680FD0AF
:1017300042F400624A6001684A6822F460424A60EA
:1017400001684A68174C436A04EB43331A4301E0CB
:1017500022F400624A600168CA6A22F47002CA6216
:101760000168CA6A838B104C04EB03531A43CA62A4
:1017700001688A6822F400728A6001688A6890F8B9
:10178000303042EA43228A6001688A6822F480622B
:101790008A6001688A68406942EA8020886010BDDA
:1017A0000023014000E0FFFF0000F0FFFEE7000023
:1017B000054800210122017041708170C1700271E1
:1017C00041718171C17170479A01002010B500F01C
:1017D00039F80021B0F5967F01D8012119E0A0F277
:1017E0008A224FF4C8739A4201D8022111E0A0F274
:1017F0000E629A4201D803210BE0A0F6CA029A4277
:1018000001D8042105E0A0F6EA30B0F5E17F00D868
:1018100005210B4A507981420DD1D079FF2801D2A0
:10182000401CD071C0B2042803D39079814200D00B
:101830009171907910BD0020D0715171F9E70000CD
:101840009A01002070B586B0002426466D461748E0
:1018500000F020FD0A21154800F0C6FC60B125F813
:101860001460124800F094FD641C092CEFD3002191
:101870000020C1F1080610E00C4800F057FC25F8E4
:101880001400EEE705EB400335F810205C88A24217
:1018900002D925F810405A80401C8642F2D8491CD3
:1018A0000829E5D3BDF8080006B070BDEC0A002099
:1018B000074A10B51468002363631468E062D060BF
:1018C000106843621368012058611068416310BDBD
:1018D000B40B002010B500210F4802F047FD02F0C4
:1018E00007F90E490968C1F38221042900D3400099
:1018F000094909688A6A0A4C521CB0FBF2F0A060E0
:10190000C86A002180B2FFF7D3FF012020700020B9
:1019100060706080606010BDB40B00200838024029
:1019200000000020014800F0CCBE0000340B002075
:10193000014800F0C6BE0000340B002000207047B4
:101940000020704710B500220449054804F0D8FB78
:101950000449034804F0C7FB002010BDD422002036
:10196000F40E0020D41A002010B50446088881B275
:1019700006480180204605F0AFFF2146044804F0E8
:10198000B2FB034804F088FB002010BDE2000020F9
:10199000F40E0020002070470A460A4910B5D1F81D
:1019A000BC1221B1D1F8141219B1012010BD0320CD
:1019B00010BD0146034804F0A3FBBDE810400148F8
:1019C00004F018BCF40E002070470000014890EDB0
:1019D000090A704764000020014840797047000000
:1019E000640000200148C06A7047000064000020C5
:1019F000014890ED0A0A704764000020014890ED0C
:101A0000080A70476400002070B50D4C0025658100
:101A100025616561A56101F017FAE061A570E570C7
:101A20009FED080A257184ED080A84ED090A84ED0A
:101A30000A0A0120E5626071BDE8704004F06AB9ED
:101A40006400002000000000002801DA002004E00B
:101A50004FF4C872904200DD1046084AD06201B1CE
:101A6000012100EE100ADFED060A5171B8EEC00A3E
:101A700020EE200A82ED080A704700006400002072
:101A80000000B4423EB50F4C4FF44871E06A484341
:101A9000617901B101210123CDE900030022029205
:101AA00013464FF47A72012000F0C0F894ED0B0A4F
:101AB000DFED050AB8EEC00A20EE200A84ED080A20
:101AC0003EBD0000640000200000B442002101205F
:101AD00000F012B92DE9F041224D04460127A87803
:101AE00028B9E869201AB0F5FA7F00D3AF70688989
:101AF000002650B12869201A052806D369891A489A
:101B000000F04AF86E81EE7007E0E87828B1A86925
:101B1000201A322801D3EE706E81A878002812D0E6
:101B2000E87800280FD16869201A50280BD328794B
:101B300058B101280FD00F21012000F09BF82E7121
:101B4000EF706C61AC61BDE8F0810C21012000F008
:101B500091F82F71F4E70E21012000F08BF802209C
:101B60002871EDE764000020FC0D002000EE100A53
:101B7000DFED070A0029B8EE400A20EE200ADFED6B
:101B8000050A20EE200A01D0B1EE400A704700009D
:101B90000000B4430000803710B500281DD0022992
:101BA0001BD30278012A18D142781F4C332A15D052
:101BB000352A25D0362A10D108290ED1B0F80310C5
:101BC000427949BA090441EA022281790A438178BB
:101BD0001046FFF7CBFF84ED090A10BD0829FCD1A0
:101BE000B0F80310427949BA090441EA0222817926
:101BF0000A4381781046FFF7B9FF84ED080A10BD4B
:101C00000629FCD1B0F8031049BA00EE101AB8EE5C
:101C1000400A84ED0A0A80780028F0D0B1EE400A2C
:101C200084ED0A0A10BD000064000020F0B40F4CDF
:101C3000DDE90457069E2070FD206070A170100A37
:101C4000E07022716371280EA071280CE071280ADF
:101C500020726572A772E6726B2020732146F0BC79
:101C600064230D22024802F013BE00008808002001
:101C7000AC0E00201E4B18700122491F12290FD2F2
:101C8000DFE801F0090B16181A1C1E202224262852
:101C90002A2C2E303234242000E0262058700222D4
:101CA0006B209854642312491248521C02F0F0BD74
:101CB0002720F3E72920F1E73020EFE73120EDE797
:101CC0003220EBE73320E9E73420E7E73520E5E78A
:101CD0003620E3E73720E1E73820DFE73920DDE78A
:101CE0003A20DBE73B20D9E73C20D7E73D20D5E78A
:101CF00028090020AC0E0020074A1070FE2050700A
:101D000098209070D1706B201071642305220249D5
:101D1000024802F0BDBD000098080020AC0E002073
:101D2000FEE74FF4B47190FBF1F201FB12000028C2
:101D300001DA00F5B470400390FBF1F000B2704797
:101D400010B5DFED171AF0EE080A2DED028BB0EE9C
:101D5000612A9FED148A9FED140A1448B0EE481AC8
:101D600006F0CDF9DFED121A1048B0EE481AB0EEC9
:101D7000612AF0EE480A9FED0F0A343006F0BFF9F1
:101D80000D4800210D4AC1800181017041708170B0
:101D900001614161128842814171BDEC028B10BD2D
:101DA0000060EA460000000000002042A40100207C
:101DB00000007A449A99993F0C0000209801002075
:101DC000F8B5514C07460125A07818B9A570E17007
:101DD0002171E760E078814201D0E170E760E0685E
:101DE00000263A1A49484FF40063142A05D3227991
:101DF000914202D0217101291DD0216931B1791A96
:101E000004D40122194601F01AF826616069381AD3
:101E1000022871D367612078DFED3D0A002188B385
:101E2000B4F9060061783B4F69B3B7F904000028A4
:101E30001DDA002020E00022194601F000F807F129
:101E400050002061E0883C3001B2E180B42903DD1C
:101E5000002000F099F8D9E7207800284FF0000022
:101E600002D000F06DF8D1E700F074F8CEE7B0F5DD
:101E7000005F01DB41F6FF70B4F90810081A4FF457
:101E8000805103E02BE016E0A0F500508842FBDC17
:101E90002149884202DA00F50050FAE700B200EE6C
:101EA000100A1E48B8EEC00A06F0D6F8BDEEC00A09
:101EB00010EE100A00B2B7F9061000EE101AF8EE94
:101EC000C00A00EE100A1548B8EEC00A343806F011
:101ED000C3F8BDEEC00A10EE100A01B206E00F48CA
:101EE0003438C0ED0A0A3430C0ED0A0A00231A461D
:101EF0001846009606F006F909486189008888426C
:101F000001D060816571F8BD0C0000200010024016
:101F100000000000D42E002000F0FFFFD8010020B8
:101F20009801002010B5002806D10846FFF7F9FEF9
:101F3000024908810120487010BD00000C000020FB
:101F4000002803D10248C180002141707047000081
:101F50000C000020002805D10348C1800121017038
:101F600000214170704700000C00002010B50028CF
:101F700007D10846FFF7D5FE024908810120087005
:101F8000487010BD0C00002008B5002815D10B4981
:101F90009FED0B0A03460870C88008810949024674
:101FA00081ED0A0A81ED0C0A343181ED0A0A81EDD6
:101FB0000C0A0146009006F0A5F808BD0C000020B0
:101FC00000000000A401002078B50024009490F8DF
:101FD0003C20012A19D0012280F83C200A680725FC
:101FE0000368092A13D9DE680A3A02EB42029540D7
:101FF000AE43DE600A788B680A3A02EB42029340F5
:102000000268D5682B43D36010E0022078BD1E69BA
:1020100002EB42029540AE431E610A788B6802EBE8
:1020200042029340026815692B4313614A681F25D9
:10203000072A13D203685E6B521E02EB82029540A0
:10204000AE435E630A8893B20A79521E02EB8202A3
:1020500093400268556B2B43536327E003680D2AB6
:1020600012D21E6BD21F02EB82029540AE431E635A
:102070000A8893B20A79D21F02EB82029340026867
:10208000156B2B43136311E0DE6A0D3A02EB8202FB
:102090009540AE43DE620A8893B20A790D3A02EBAC
:1020A000820293400268D56A2B43D3621B4B0568BA
:1020B000194A9D420AD10D68122D07D1556825F4A1
:1020C00000055560556845F48005556005689D42DA
:1020D0001DD1134D0B68AB4201D0112B17D15368A2
:1020E00023F480035360536843F40003536009688A
:1020F000A9420CD10B490C4A0968B1FBF2F101EB82
:102100008101490000E0491E00910029FBD180F8BF
:102110003C40002078BD0000002301400020014029
:10212000120000100401002040420F000068C06C43
:10213000704770B504004FF0000603D0206C0025F6
:1021400010B107E0012070BD204600F01DF8656465
:1021500084F83C50206CC00610D4206C20F48850C9
:1021600040F0020020642046FFF78CFA6564206C82
:1021700020F0020040F00100206400E0012684F815
:102180003C50304670BD000010B586B004461421A6
:102190006846FEF76BFA1149206888421CD1104846
:1021A0000021026842F480720260006800F48070CE
:1021B00005900B481438026842F001020260006882
:1021C00000F001000590402000900320CDE90101BE
:1021D0006946044800F030FD06B010BD0020014003
:1021E00044380240000002402DE9F04104460068F6
:1021F0000D4681684FF0000749050BD58068C00582
:1022000008D5206C40F02000206484F83C70012048
:10221000BDE8F08100F018FE064613E0681C11D0FE
:1022200025B100F011FE801BA8420BD92068006880
:10223000800707D4206C40F00400206484F83C70D0
:102240000320E5E7206800688007E7D521686FF084
:1022500012000860206C40F40070206420688168DF
:1022600011F0405F13D1217E89B9C16A11F4700F5A
:1022700002D0806840050AD4206C20F4807020646D
:10228000206CC00403D4206C40F0010020640020C6
:10229000BEE7000018B50022009290F83C1001291A
:1022A00007D0012180F83C1001688B68DB0702D061
:1022B00011E0022018BD8B6843F001038B602E49AA
:1022C0002E4B0968B1FBF3F101EB410100E0491E1F
:1022D00000910029FBD101688B68DB0742D0036CB9
:1022E00040F20164A34343F4807303644B685B05CD
:1022F00005D5036C23F4005343F480530364036C4B
:10230000DB0404D5436C23F00603436400E042641D
:1023100080F83C201A4A6FF022030B605168006875
:10232000CA06184906D0884224D1816811F0405F5E
:1023300013D01FE08842F8D0134A904203D1D1F85D
:102340000423D206F1D0114A904213D1D1F80413DC
:1023500001F01F011029E8D30CE0816841F08041B1
:10236000816007E0016C41F010010164416C41F0B3
:1023700001014164002018BD0401002040420F000B
:1023800000230140002001400021014000220140C3
:1023900090F83C1001290CD0012180F83C10016814
:1023A0008A6822F001028A6001688968C90702D040
:1023B00007E002207047016C21F4885141F00101CF
:1023C0000164002180F83C100846704790F82020F6
:1023D000012A07D0022A05D0416A41F480214162D6
:1023E00001207047006842690A434261002070473B
:1023F000F0B590F820500468A468012D05D0022D96
:1024000003D0416A41F4802157E014F0406F01D1BC
:10241000E5004FD5C4F301640125A5401D608B681C
:102420004FF4C0759BB1CE6833434E6843EAC60390
:10243000066805EB0417F3514FF4C273076803EB0A
:1024400004130E69FE50097D012905D009E00E88AC
:10245000CB6843EA4653EBE70168CE5846F48076F2
:10246000CE501179D379567941EA036193791B04EF
:1024700043EA062319434FF4C676036806EB0416B5
:1024800099511178D37841EA0361937852781B040B
:1024900043EA022211434FF4C473026803EB0413AE
:1024A000D150006805EB0411425842F0010242503D
:1024B0000020F0BD416A41F4001141620120F0BDED
:1024C00010B590F82020012A07D0022A05D0416AD1
:1024D00041F480214162012010BD3B48D0F8002228
:1024E00042F00102C0F80022D0F8002222F47C520F
:1024F000C0F80022D0F800224B6A42EA0322C0F85A
:1025000000220A7D02F01F0301229A40D0F81C32FB
:102510009343C0F81C32CB69B3B9D0F80C32934363
:10252000C0F80C328C894B6864F31F434C6900EB94
:10253000C404C4F840320C890B6864F31F434C692F
:1025400000EBC404C4F84432CB69012B16D1D0F897
:102550000C321343C0F80C320C884B6864F31F43F1
:102560004C6900EBC404C4F840320C89CB6864F3B6
:102570001F434C6900EBC404C4F844328B69002B40
:10258000D0F804320ED01343C0F804320B69002B8C
:10259000D0F8143208D01343C0F81432096A012964
:1025A00004D008E09343EFE79343F5E7D0F81C121B
:1025B0001143C0F81C12D0F8001221F00101C0F83C
:1025C0000012002010BD000000640040704770B58C
:1025D00090F82040012C05D0022C03D0416A41F430
:1025E000802128E0046809B32469A40720D04FF4AF
:1025F000D874056804EB01142D5915F00405956095
:1026000005682D591AD0ED08556005682C5904F05D
:102610000204D4604FF4DA74056804EB01142E59F7
:1026200006F00F06082E0CD308250DE0E468DCE761
:10263000416A41F400114162012070BD6D0D1560C9
:10264000E3E72D5905F00F05156105682D59C5F310
:102650000725956105682C59240C54614FF4DC72F0
:10266000046802EB0112A4581C700468A458240AE0
:102670005C700468A458240C9C700468A258120E64
:10268000DA704FF4DE72046802EB0112A4581C7178
:102690000468A458240A5C710468A458240C9C7132
:1026A0000468A258120EDA71006829B1016941F07C
:1026B00020010161002070BDC16841F02001C160AE
:1026C000F8E72DE9F05F0546006800244669D0F878
:1026D00004908768D0F80CB0D0F810A0D0F818801B
:1026E000F10748D0F90714D001218160B80703D55C
:1026F000284600F02EFA0CE0780702D54FF400646B
:1027000007E0380702D54FF4805402E0284600F075
:102710001FFAF80516D529684FF480708860B8054F
:1027200003D5284600F017FA0CE0780502D544F4EA
:10273000005407E0380502D544F4804402E02846FE
:1027400000F008FAF80316D529684FF48030886045
:10275000B80303D5284600F000FA0CE0780302D550
:1027600044F4004407E0380302D544F4803402E026
:10277000284600F0F1F9300707D55FEACB6004D5B1
:102780002968102044F40074C86070074FF00807EF
:1027900007D55FEA0B7004D52868C760284600F0AB
:1027A0005FF9B00706D52868C068800702D02846C0
:1027B00000F058F9700607D55FEACA6004D52968A9
:1027C000102044F480640861B00607D55FEA0A70FF
:1027D00004D528680761284600F08CF9F00606D574
:1027E00028680069800702D0284600F084F9B00309
:1027F00008D55FEAC96005D52968102048602846D9
:1028000000F07AF9F00307D55FEA097004D528686B
:102810004760284600F0A2F9300446D55FEA4970C7
:1028200040D5F00504D55FEAC87001D044F001043A
:10283000B00504D55FEA887001D544F00204700544
:1028400004D55FEA487001D544F00404300529D569
:1028500018F0700F26D008F07000402815D006DC64
:10286000102809D020280AD0302816D10AE0502894
:102870000ED0602811D10EE044F008040DE044F0C1
:1028800010040AE044F0200407E044F0400404E0AF
:1028900044F0800401E044F480742868816921F0E8
:1028A00070018161296804204860002C05D0686AA5
:1028B000204368622846FFF789FEBDE8F09F70B5A7
:1028C000040003D094F8200010B104E0012070BD92
:1028D000204600F081F82068016841F001010160A4
:1028E00000F0B2FA0546052604E000F0ADFA401B00
:1028F0000A2811D820684068C007F6D0206801680F
:1029000021F00201016000F09FFA05460BE000F0A3
:102910009BFA401B0A2806D9606A40F400306062C6
:1029200084F82060D2E7206840688007EFD4207EDA
:102930000128206801683DD021F080010160607E9F
:1029400001282068016838D021F040010160A07E94
:1029500001282068016833D021F020010160E07E69
:102960000128206801682ED041F010010160207F0D
:1029700001282068016829D021F008010160607FEA
:1029800001282068016824D021F004010160D4E905
:1029900002010843D4E90412114308436168491E47
:1029A00008432168C86100206062012084F820008B
:1029B000002070BD41F08001C0E741F04001C5E753
:1029C00041F02001CAE721F01001CFE741F00801F2
:1029D000D4E741F00401D9E710B586B004461421CC
:1029E0006846FDF743FE1B49206888422FD11A48EC
:1029F0000021026842F000720260006800F000707E
:102A0000059015481038026842F00802026000681C
:102A1000022200F0080005900320CDE90210CDE964
:102A200000020920049069460C4800F005F90022D4
:102A30001146132000F076FA132000F065FA002208
:102A40001146142000F06EFA142000F05DFA06B072
:102A500010BD00000064004040380240000C0240FD
:102A60007047000000B51F49026889B08A4204D14E
:102A70006B4602AA0021FFF7AAFD00F0E5F90699CE
:102A80006B46CAB2029989B201F07AFF02981649E0
:102A9000A0F20520072817D20A88C0B2521C00EB0A
:102AA00040030A801148BDF8002000EB830052BAB1
:102AB0008280BDF8022052BAC280BDF8042052BA0A
:102AC00002819DF8062082720888B0F5FA7F06D14F
:102AD000002008804FF48041054800F0A8F909B0B3
:102AE00000BD00000064004098010020D42E0020AA
:102AF0000014024070477047704770B5044690F864
:102B00002000012804D0606A40F40020606217E0D1
:102B1000022084F820002068016821F00101016092
:102B200000F092F905460DE000F08EF9401B0A28EE
:102B300008D9606A40F400306062052084F8200003
:102B4000012070BD20684068C007EDD1606270BD93
:102B500070477047704770477047704770472DE95E
:102B6000F0410446876D00F06FF9054694F8350092
:102B70000026022806D08020606584F83460012099
:102B8000BDE8F0812068016821F01601016020682D
:102B9000416921F080014161206C08B9A06C20B12D
:102BA0002068016821F0080101602068016821F0B7
:102BB000010101600CE000F047F9401B052807D92E
:102BC00020206065032084F8350084F83460D7E75E
:102BD00020680068C007EED194F85C103F20884060
:102BE000B860012084F8350084F834600020C7E71D
:102BF00090F83510022903D08021416501207047EB
:102C0000052180F835100068016821F0010101609C
:102C10000020704770B5044600F016F90546601CA8
:102C200002D004480078044400F00EF9401BA04292
:102C3000FAD370BDF80000202DE9F84FDFF8B0910D
:102C40000022A9F1040B03274FF00F0C09F1040A2D
:102C5000ABF1040E01250B6895402B40AB426ED1C1
:102C60000C7904F00304012C01D0022C15D18668E4
:102C7000540007FA04F826EA0806D1F80C8008FA8E
:102C800004F848EA0608C0F808804468AC430D79A7
:102C9000C5F300159540254345600C79E443A4072E
:102CA00008D0C568540007FA04F6B5438E68A640FC
:102CB0002E43C6600C7904F00304022C11D1D40811
:102CC00000EB8406356A5407E40E0CFA04F825EA92
:102CD0000805D1F8108008FA04F848EA0508C6F893
:102CE00020800568540007FA04F6B5430E7906F013
:102CF0000306A6402E4306604C6814F4403F70D093
:102D00003C4C256845F480452560246822F0030585
:102D100004F480440094384C05EB0408D8F80858B3
:102D20009407260F0CFA06F4A543344CA04201D1B7
:102D300000242EE0324CA04202D1012429E050E0D0
:102D4000304CA04201D1022423E02F4CA04201D1FB
:102D500003241EE02D4CA04201D1042419E02C4C88
:102D6000A04201D1052414E02A4CA04201D106243E
:102D70000FE0294CA04201D107240AE0274CA042D1
:102D800001D1082405E0264CA04201D1092400E02D
:102D90000A24B4402C43C8F80848D9F800404D46EE
:102DA0004E689C43F60200D51C432C60DAF80040C4
:102DB00055464E689C43B60200D51C432C60DBF898
:102DC00000405D464E689C43B60300D51C432C6012
:102DD000DEF8004075464E689C43F60300D51C4360
:102DE0002C60521C102AFFF435AFBDE8F88F0000AC
:102DF000083C0140443802400030014000000240DD
:102E00000004024000080240000C02400010024092
:102E10000014024000180240001C02400020024042
:102E2000002402400069084000D001207047426938
:102E300021EA02030A4043EA0241816170470AB174
:102E4000816170470904FBE7014880687047000012
:102E5000F8000020024881680278114481607047C0
:102E6000F80000200B4810B5016841F400710160C2
:102E7000016841F480610160016841F48071016082
:102E8000032000F06FF8002000F006F800F024F8AE
:102E9000002010BD003C024070B50D4D04464FF4BB
:102EA0007A712878B1FBF0F00A490968B1FBF0F0BB
:102EB00001F075F948B9102C07D200222146501EA6
:102EC00000F030F800206C6070BD012070BD000083
:102ED000F8000020040100200A4808B5016841F408
:102EE00080410160006800F4804000900548001FA8
:102EF000016841F080510160006800F0805000904E
:102F000008BD000044380240002809DB00F01F0221
:102F1000012191404009800000F1E020C0F800113B
:102F200070470000F0B40E4B1B68C3F30223C3F1DB
:102F30000704042C00D904241D1D072D01D20023F1
:102F400000E0DB1E012606FA04F56D1E0D409D40D3
:102F50009E40761E164045EA0601F0BC04F0F6BC21
:102F60000CED00E0064A00F0070110684FF6FF0381
:102F7000184040EA012003490843106070470000F0
:102F80000CED00E00000FA05704700684162002087
:102F90007047F0B50368586A39B19C6A4FF482757E
:102FA00000EB144400204E1E0AE040EA0240986202
:102FB0000FE005EB8007DF59401C04EB1744C0B25B
:102FC000B042F6D344EA02404FF4807202EB810132
:102FD00058500020F0BDD0F8E00403F0A4BB01EB92
:102FE000C10200EB8202D0F8E004126A03F0F5BAE5
:102FF00001EBC10200EB8202D0F8E004D2F86022BB
:1030000003F047BBD0F8E00403F08FBB0A0601F0E1
:103010000F0101EBC10100EB810101D5143101E089
:1030200001F51571006804F073BA70B504460B061B
:1030300001F00F0000EBC00104EB81014FF0010231
:103040004FF0000502D54A75143103E081F855525E
:1030500001F51571087094F89404012808D084F8DB
:103060009424206803F072FF84F89454002070BD0B
:10307000022070BD70B5044601F00F002279904225
:1030800001D9012070BD0B0601F00F0101EBC10158
:1030900004EB81014FF001024FF0000502D54A75A3
:1030A000143103E081F8555201F515718D700870E7
:1030B00094F89404012808D084F89424206804F03B
:1030C000B3F884F89454002070BD022070BD01F064
:1030D0000F0101EBC10100EB8100D0F868027047DD
:1030E0002DE9F04104460F0601F00F0000EBC0018E
:1030F00004EB81014FF001064FF0000502D54E753B
:10310000143103E081F8555201F51571C2F30A023A
:1031100008708A600B714A7802B14883022B00D193
:103120004D7194F89404012809D084F894642068BF
:1031300003F05AFE284684F89454BDE8F08102203A
:10314000FBE710B501F00F0404EBC40100EB8101B3
:10315000C1E998230023C1F8683281F8553281F81B
:103160005442837901F51571012B00D1CA6182792E
:10317000006804F0B1F8002010BD70B504460D469B
:1031800001F00F002179884201D9012070BD290684
:103190004FF000064FF0010206D500EBC00104EB32
:1031A00081014A75143107E005EBC50104EB81018B
:1031B00081F8556201F515718A70087094F89404CD
:1031C000012807D084F89424206804F059F82807CF
:1031D00002D007E0022070BDA17904F29C42206871
:1031E00003F0F6FF84F89464002070BD10B501F080
:1031F0000F0404EBC40100EB8101C1E908230023A3
:103200008B6201234B7501F8144F8379012B00D198
:10321000CA618279006804F05FF8002010BD0000E8
:103220002DE9F84F05680446284604F00CFA0028FA
:103230007DD1206804F033FA002878D0D5F808084A
:10324000C0F30D20C4F8D404206804F028FA8007E5
:1032500004D52068416901F002014161206804F051
:103260001EFAC10604F29C40009034D520688169A2
:1032700021F0100181612F6A07F00F0000EBC00000
:1032800004EB8006C7F3434006F51576022802D00A
:10329000062811D01AE047F6F070074216D0C7F39F
:1032A0000A1217462846F16804F0FDF9F068384420
:1032B000F0607069384408E008222846009904F05C
:1032C000F2F97069C7F30A110844706120688169D6
:1032D00041F010018161206804F0E1F900034FF032
:1032E000010B7AD50026206804F0B8F98046DFF893
:1032F00078A46FE05FEAC87069D0F1B2206804F08A
:10330000C6F90746C00707D005EB4611C1F808BB50
:103310003146204601F03AFF380722D505EB461129
:103320000820C1F8080B2068D0F8409000E018E2AF
:1033300000EB4610D0F8082BD14505D9110403D570
:103340004FF40041C0F8081B204600F0F0FAD145C8
:1033500007D9A079012804D120680121009A03F03F
:1033600037FFF80604D505EB46111020C1F8080B0D
:10337000B8071DD56869000605D5D5F8040840F4DE
:103380008061C5F8041806EBC60004EB800090F8D5
:10339000571200F51570012905D10021C170F1B255
:1033A000204600F0E7F905EB46110220C1F8080BB2
:1033B000B80604D505EB46102021C0F8081BB80458
:1033C00005D505EB46104FF40051C0F8081B4FEA35
:1033D0005808761CB8F1000F8CD1206804F05FF912
:1033E00040036DD5206804F032F98046002664E081
:1033F0005FEAC8705ED0F1B2206804F036F9074683
:10340000C00723D006F00F010BFA01F0D5F83418ED
:103410008143C5F8341805EB4610C0F808B9A07907
:1034200001280FD106EBC60004EB8000D0E907218C
:103430001144016236B9606A20B920680121009AFE
:1034400003F0C6FEF1B22046FFF7C9FD380704D5E8
:1034500005EB46110820C1F80809F80604D505EB6C
:1034600046111020C1F80809780604D505EB46106E
:103470004021C0F80819B80716D53146284604F08F
:10348000B7F806EBC60004EB8000C17D14300129BB
:1034900005D10021C170F1B2204600F067F905EBBB
:1034A00046110220C1F80809380603D531462046E6
:1034B00001F0D2FE4FEA5808761CB8F1000F97D100
:1034C000206804F0ECF8002811DAD5F8040820F0A0
:1034D0000101C5F8041894F8CC0401282BD020462B
:1034E00000F00AFA2068416901F00041416120685A
:1034F00004F0D5F800050BD5D5F80808C00702D0B0
:10350000204600F03DFA2068416901F40061416104
:10351000206804F0C4F8C00467D5D5F8040820F08A
:103520000101C5F804181021206804F061F8002199
:103530004FF67F3220E0002084F8CC04014620467C
:10354000FFF722FDCEE705EB4110C0F80829D0F8BF
:10355000003923F40013C0F80039C0F8082BD0F864
:10356000003B23F40013C0F8003BD0F8003B43F0CD
:103570000063C0F8003B491C20798842E3D8D5F8A5
:103580001C0840F00111C5F81C18E07B00282846F3
:103590000DD0D0F8840840F00B01C5F88418D5F898
:1035A000440840F00B012846C5F844180DE0D0F857
:1035B000140842F22B010843C5F81408D5F8100886
:1035C00040F00B012846C5F81018D0F8000820F488
:1035D000FE61C5F80018A1792068009A03F0F8FD93
:1035E0002068416901F480514161206804F057F876
:1035F000800415D5206803F037FC206804F016F825
:10360000E07100F06FFA0146E279206804F0AAF850
:10361000204600F05BF92068416901F400514161E6
:10362000206804F03CF8000707D5204600F068F950
:103630002068416901F008014161206804F02FF819
:10364000000615D5A86920F08001A96101260CE0CB
:1036500006EBC60004EB800090F85702012803D166
:10366000F1B22046FFF7D2FC761C2079B042EFD8A9
:10367000206804F014F8C0021FD501265F4614E04C
:1036800005EB4610D0F8001906EBC60004EB8000ED
:10369000027E012A08D1002906DAC775F0B240F08F
:1036A00080012046FFF7B2FC761C2079B042E7D8B3
:1036B0002068416901F480114161206803F0EFFF47
:1036C000800231D501205B4626E005EB4011D1F8A0
:1036D000001B00EBC00204EB820292F85862012E3C
:1036E00019D1002917DA94F8D464C1F3004106F027
:1036F00001068E420FD182F85732A96941F080024B
:10370000AA616969090606D4D5F8040840F4007076
:10371000C5F8040803E0401C21798142D5D820680F
:10372000416901F400114161206803F0B8FF4000D5
:1037300007D52046FFF74FFC2068416901F0804122
:103740004161206803F0ABFF40070AD52068456857
:10375000680702D52046FFF755FC206841682943D9
:103760004160BDE8F88F00000A30544FD0F8E00403
:1037700003F02DB8D0F8E00403F03DB8F8B504002C
:1037800005D094F895042668002510B106E00120C4
:10379000F8BD84F89454204600F056F8032084F8CD
:1037A0009504B6F1A04F00D1A571206803F00AFD81
:1037B000207C8DF8000094E80F0003F063FB0226E4
:1037C000B0BB0021206803F08DFF88BB00210127DA
:1037D0000CE001EBC10004EB800047750175C18569
:1037E0000576C5610562491CC9B2456220798842E7
:1037F000EFD8002111E001EBC10004EB800080F85C
:10380000555280F8541280F85852C0F85C52C0F8F3
:103810006052491CC9B2C0F8645220798842EAD883
:10382000207C8DF8000094E80F0003F013FC10B129
:1038300084F89564ABE7657484F89574206803F0A8
:10384000FBFB0020F8BD000010B586B00446142133
:103850006846FCF70BFF2068B0F1A04F2FD1194844
:103860000021026842F001020260006800F00100DD
:1038700005904FF4C05000900220CDE901010320D3
:1038800003900A20049069460F48FFF7D5F90D48C8
:10389000001D016841F0800101600A481430016890
:1038A00041F4804101600068002200F480400590EE
:1038B00011464320FFF736FB4320FFF725FB06B0F8
:1038C00010BD0000303802400000024070B50446D0
:1038D000C079012570B1022801D0FEF721FA2946EE
:1038E000D4F8E00402F0F6FFD4F8E004BDE870403C
:1038F00002F0AABF0025F2E7D0F8E00402F0D3BF3F
:10390000D0F8E00402F0D9BF10B5044690F8940452
:1039100001280AD0012084F894046174206803F01F
:103920000FFF002084F8940410BD022010BDD0F8D1
:10393000E02400F29C41104602F0D8BF10B50446C6
:10394000006894F89414012909D0012184F8941492
:10395000C168490609D5617B012902D005E0022032
:1039600010BD816B41F480318163206803F01EFE3D
:10397000206803F053FB002084F8940410BD00007D
:1039800010B50446D0F8E00402F0F2FF2068D0F849
:10399000001E41F00101C0F8001EE07A002804D0AA
:1039A0000248016841F00601016010BD10ED00E021
:1039B0002DE9F0470D46040065D0DFF81491D9F8E1
:1039C0000000EFB200F00F00A84207D289F80070A3
:1039D000D9F8000000F00F00A84254D120683D4EF5
:1039E000810712D5400703D5306840F4E0503060BD
:1039F0002078000703D5306840F4604030603068BC
:103A0000A16820F0F000084330602078C0072DD076
:103A1000304960680839012812D0022813D00328E1
:103A200011D00968890700292DDA316821F00301D6
:103A300001433160FFF708FA804641F2883A0EE010
:103A400009688903EFE709688901ECE7FFF7FCF9EA
:103A5000A0EB0801514502D90320BDE8F08730688A
:103A6000616800F00C00B0EB810FEFD1D9F80010C5
:103A7000484601F00F01A94207D90770006800F01D
:103A80000F00A84201D00120E7E72078400705D5C4
:103A90003068E16820F4E050084330602078000787
:103AA00006D53068216920F4604040EAC1003060EA
:103AB00000F03EF83168084AC1F30311515CC84078
:103AC0000649086006480068FFF7E6F90020C4E7E9
:103AD000003C0240083802408882000804010020AF
:103AE000FC0000200148006870470000040100202D
:103AF0000448054900680968044AC1F38221515C01
:103B0000C84070470401002008380240988200082D
:103B10000448054900680968044AC1F34231515C10
:103B2000C84070470401002008380240988200080D
:103B3000154810B5006810F00C01144813D0144B50
:103B400004290FD008290ED10F4C241F216801F041
:103B50003F022168490207D52068C0F38810A0FB06
:103B6000030106E0184610BD2168C1F38811A1FBCE
:103B700000010023FCF7BCFB2168C1F30141491C93
:103B80004900B0FBF1F010BD083802400024F400F9
:103B9000001BB7002DE9F84F040075D02078DFF83E
:103BA00038A3C007AAF1040548D00AF1040001684F
:103BB000C1F38101012908D00068C0F38100022807
:103BC0000AD1DAF80000400206D52868800335D50E
:103BD00060680028E1D031E06068B0F5803F10D027
:103BE000B0F5A02F286810D020F480302860286815
:103BF00020F4802028606068A0B1FFF725F9064610
:103C00000CE0286840F48030F4E740F4802028601D
:103C1000F7E7FFF719F9801B642871D8286880033B
:103C2000F7D50BE0FFF710F9064604E0FFF70CF9B3
:103C3000801B6428F1D828688003F7D42078DFF847
:103C40009C9280074FF0000B3DD5A348001D0168F2
:103C500011F00C0F08D00068C0F3810002280AD1CF
:103C6000DAF80000400206D42868800715D5E0681D
:103C7000012809D111E0E068B8B10120C9F80000BD
:103C8000FFF7E2F8064605E022E1FFF7DDF8801BCA
:103C90000228C2D828688007F7D52868216920F053
:103CA000F80040EAC10028600DE0C9F800B0FFF755
:103CB000CBF8064604E0FFF7C7F8801B02281FD8A0
:103CC00028688007F7D42078000722D5824F8448DF
:103CD0006169703771B101210160FFF7B5F80646DF
:103CE00004E0FFF7B1F8801B022809D83868800784
:103CF000F7D50EE0C0F800B0FFF7A6F8064605E0DD
:103D000082E0FFF7A1F8801B02287DD83868800781
:103D1000F7D42078400765D56F484FF000083C3055
:103D20000068C0000BD46C483C30016841F0805101
:103D3000016000684FF0010800F080500090694F6A
:103D40003868C0050FD4386840F480703860FFF7D9
:103D50007BF8064604E0FFF777F8801B022853D86B
:103D60003868C005F7D55C4FA0686C3701280FD0C4
:103D70000528386810D020F001003860386820F03D
:103D800004003860A068B0B1FFF75EF806460EE0A8
:103D9000386840F00100F4E740F004003860F7E7CD
:103DA000FFF752F8811B41F28830814263D83868AE
:103DB0008007F5D50DE0FFF747F8064606E0FFF768
:103DC00043F8811B41F28830814254D8386880071B
:103DD000F5D4B8F1000F05D03F483C30016821F020
:103DE00080510160A069B8B33B49091D0968C1F35E
:103DF0008101022946D00228584606D0C9F8600041
:103E0000FFF722F8044639E035E04F46C9F8600074
:103E1000FFF71AF8064604E0FFF716F8801B0228A1
:103E200029D828688001F7D4D4E907010843A16A9A
:103E30002D4A490802EB0141626A41EA82110843B6
:103E400094F82C1040EA0161CAF80010012038668D
:103E5000FEF7FAFF044605E03CE0FEF7F5FF001B25
:103E6000022808D828688001F7D533E0FEF7ECFF78
:103E7000001B022802D90320BDE8F88F28688001C2
:103E8000F4D427E00128F7D0DAF80000E26900F462
:103E9000800191421CD1226A00F03F01914217D16A
:103EA00047F6C071626A0140B1EB821F10D1A26A6D
:103EB0004FF0FF3300F4403103EB5202B1EB024FFD
:103EC00006D194F82C1000F07060B0EB016F01D0B7
:103ED0000120D1E70020CFE704380240000047422C
:103EE000800E4742007000400000FFFF70B50400E4
:103EF00009D0606A002540B125616561A56294F82A
:103F0000510040B10CE0012070BD6068B0F5827FC7
:103F1000F4D0E561F2E784F85050204600F044F810
:103F2000022084F851002068016821F040010160FE
:103F3000A088218900F4827001F404410843A1891A
:103F400001F400610843217C01F002010843217D56
:103F500001F001010843218B01F400710843217F26
:103F600001F03801084394F8201001F08001084363
:103F7000218D01F40051084321680860A0690421E3
:103F800001EA104094F8241001F010010843216860
:103F900048602068C16921F40061C1616565012044
:103FA00084F85100002070BDF0B587B0044614219C
:103FB0006846FCF75BFB1C492068884232D11B48ED
:103FC0000025016841F480510160006800F48050D0
:103FD000059016481438016841F00201016001683B
:103FE00001F002010591016841F0010101600068E2
:103FF000022600F0010005901820CDE900060327F5
:1040000005240295CDE9037469460948FEF714FEBC
:104010008020CDE900060295CDE903746946054884
:10402000FEF70AFE07B0F0BD003001404438024000
:1040300000040240000002402DE9F84F1D461746DB
:104040008A460446FEF700FF064694F85100012810
:1040500026D1BAF1000F77D0002F75D094F8500018
:1040600001281DD04FF0010984F85090032084F8F6
:1040700051004FF00008C4F85480C4F830A0A7865F
:10408000E786C4F83880A4F83C80A4F83E80C4F8E1
:104090004480C4F84080A068B0F5004F03D00CE025
:1040A0000220BDE8F88F2068016821F0400101601E
:1040B0002068016841F48041016020680168490678
:1040C00003D4016841F040010160E068B0F5006F81
:1040D000606803D028B3012F23D03FE008B1012F3F
:1040E0001BD1206B21680088C86006E020688168C9
:1040F000890709D5216B0988C160206B801C20636A
:10410000E08E401EE08608E0FEF79EFE801BA8427F
:1041100002D3681C01D02FE075B3E08E0028E5D1F2
:104120001FE0206B21680078087306E02068816832
:1041300089070AD5216B09780173206B401C206325
:10414000E08E401EE08609E027E0FEF77DFE801B42
:10415000A84202D3681C01D00EE06DB1E08E0028A9
:10416000E4D132462946204601F0C4F808B12020A7
:104170006065A06830B109E084F8519084F85080FF
:1041800003208EE72068C1688068009084F8519011
:1041900084F85080606D002883D0012081E710B53D
:1041A000401EB0F1807F01D3012010BD4FF0E0240C
:1041B00060610F21601703F0C9FB0020A061072098
:1041C0002061002010BD000010B586B00446142107
:1041D0006846FCF74BFA0E482168814215D10D481C
:1041E0000021026842F080020260006800F0800056
:1041F0000590402000900220CDE901010920CDE981
:10420000031069460448FEF717FD06B010BD000014
:104210000018004030380240001C024070B50446CF
:1042200090F83C0000260D4601280FD0012084F8AC
:104230003C006AB1042A1DD0082A2FD00C2A3FD096
:104240000126002084F83C00304670BD022070BD7D
:10425000206801F0D3F92068816941F0080181618B
:104260002068816921F004018161206881692A69DF
:10427000114311E0206801F0F1F92068816941F4EF
:10428000006181612068816921F480618161206819
:1042900081692A6941EA02218161D2E7206801F03F
:1042A00013FA2068C16941F00801C1612068C16941
:1042B00021F00401C1612068C1692A69114311E03C
:1042C000206801F035FA2068C16941F40061C161DC
:1042D0002068C16921F48061C1612068C1692A69CF
:1042E00041EA0221C161ACE710B5040003D094F8A3
:1042F0003D0010B107E0012010BD002084F83C0013
:10430000204600F01FF8022084F83D00211D20689F
:1043100001F0FEF8012084F8460084F83E0084F89D
:104320003F0084F8400084F8410084F8420084F89B
:10433000430084F8440084F8450084F83D000020E0
:1043400010BD000008B500680649884208D106483B
:10435000016841F040010160006800F040000090F9
:1043600008BD0000001800404038024010B5044667
:1043700049B104290AD008290BD094F8410001283A
:104380000AD0012010BD94F83E00F8E794F83F00F1
:10439000F5E794F84000F2E70220B1B3042938D0E1
:1043A000082939D084F841000122206801F018F969
:1043B0001B4920681B4A884201D0904203D1436CBC
:1043C00043F4004343642068884213D0B0F1804F27
:1043D00010D0154988420DD0144988420AD014499A
:1043E000884207D0904205D01249884202D0124933
:1043F000884204D1816801F00701062903D00168D1
:1044000041F001010160002010BDFFE784F83E008B
:10441000CAE784F83F00C7E784F84000C4E700001B
:10442000000001400004014000040040000800407A
:10443000000C0040004001400018004070470000A0
:1044400000680549884201D101F03CBC034988421B
:1044500001D101F0B3B9704700140140007C004065
:10446000F8B5016804460868CA684B6910F00F0F78
:104470004FF0000559D003F0010602F4907737435E
:1044800065D0C10705D0D10503D5616C41F00101AC
:104490006164410705D5D90703D0616C41F0020181
:1044A0006164810705D5D90703D0616C41F004012F
:1044B0006164010707D502F02001314303D0616C2C
:1044C00041F008016164616C00293AD0800604D58E
:1044D000900602D5204601F0A9F920684069616C78
:1044E000C0F38010090700D460B3204601F077F9CB
:1044F00020684069400621D52068143050E8001F2C
:1045000021F0400140E80012002AF5D1E06BA8B18B
:1045100072490165E06BFEF76BFB002811D0E06B80
:10452000016D01B0BDE8F040084783060FD5930642
:104530000DD52046BDE8F84001F078B92046FFF7D8
:104540007FFFF8BD2046FFF77BFF6564F8BD266B53
:104550002023012E7ED1C6067CD5D6067AD50868E2
:104560004868009048694FF0020640064DD5E26B5E
:10457000106840684FF480770004000C3AD0A18D99
:10458000814237D9E085D069B8422DD020680C30FF
:1045900050E8001F21F4807140E80012002AF5D194
:1045A0002068143050E8001F21F0010140E800129B
:1045B000002AF5D12068143050E8001F21F0400196
:1045C00040E80012002AF5D184F8423025632068C3
:1045D0000C3050E8001F21F0100140E80012002AC2
:1045E000F5D1E06BFEF7BBFA6663A08DE18D401A52
:1045F00081B206E0A18D8142A8D1D069B842A5D18F
:1046000066632046FFF71AFFF8BDA08DE18D401AC2
:1046100081B2E08D0028F7D00029F5D020680C3059
:1046200050E8002F22F4907240E80027002FF5D1C7
:104630002068143050E8002F22F0010240E80027E3
:10464000002FF5D184F84230256320680C3050E803
:10465000002F00E006E022F0100240E80023002BCB
:10466000F3D1CDE705062BD5150629D594F84100E1
:104670002128C9D1A068B0F5805F01D12069B0B10F
:10468000206A411C2162216800784860E08C401E4D
:104690000004000CE084B7D12068C16821F08001DB
:1046A000C1602068C16841F04001C160F8BD206A66
:1046B0000088C0F308004860206A801C2062E5E79B
:1046C0004006F3D55006F1D5CA68204622F04002D4
:1046D000CA6084F8413000F02BF9F8BDD1570008CA
:1046E00070B5040004D094F84100002510B106E034
:1046F000012070BD84F84050204600F023F82420AB
:1047000084F841002068C16821F40051C16020464E
:1047100001F0EEF82068016921F490410161206800
:10472000416921F02A0141612068C16841F40051CA
:10473000C1606564202084F8410084F8420065630C
:10474000002070BDF0B587B0044614216846FBF721
:104750008DFF3B4ADFF8E4C021680024384B103A53
:10476000022603250827374861451BD1196841F007
:1047700080411960196801F080410591116841F08C
:104780001001116011680DF1080C01F01001059184
:10479000E901CDE900168CE8B0006946FEF74CFA55
:1047A00007B0F0BDDFF8A0C061451ED1196841F027
:1047B00000411960196801F000410591116841F04C
:1047C000100111601168CDE9005601F01001CDE92A
:1047D00004716946CDE90245FEF72EFA0022114622
:1047E0005320FEF79FFB532025E018488142D7D184
:1047F0001348001D016841F020010160006800F0CD
:1048000020000590106840F040001060106802AB76
:1048100000F0400005904FF48440CDE9000683E8A5
:10482000B00069460A48FEF707FA00221146472001
:10483000FEF778FB4720FEF767FBB1E70078004002
:104840004038024000100240007C0040001401404B
:104850000018024090F84230202B01D0022070470F
:1048600021B11AB10023036301F0C8B801207047D9
:1048700000680549884201D101F032BA03498842F3
:1048800001D100F083BF704700140140007C00405C
:104890002DE9F843044690F841001F4615460E46A0
:1048A000202802D00220BDE8F8838EB185B1002017
:1048B0006064212084F84100FEF7C6FAA584814691
:1048C000E584A0684FF02008B0F5805F02D003E0D7
:1048D0000120E8E7206910B1354600260EE00025EA
:1048E0000CE08021204601F0A4F8A0B9BDB115F874
:1048F000010B21684860E08C401EE084E08C4B4650
:104900004FF0000200970028EBD14FF04001204605
:1049100001F08FF840B184F841800320C3E736F8F6
:10492000020BC0F30800E4E784F841800020BAE7F6
:10493000704700000E4800219FED0E0A017080EDC7
:10494000010A80ED020A80ED030A80ED040A80ED81
:10495000050A80ED060A9FED080A80ED070AB7EE0A
:10496000080A80ED080A416281620448816070474C
:104970002400002000000000000070420C02002013
:1049800070B50024052A15D31D78012D13D00129F7
:1049900010D19A7819881401DA781B7944EA121533
:1049A00002F00F0249BA43EA02240B4A11805580F3
:1049B0009480906070BDDD78B3F801102D011E79F0
:1049C00049BA45EA1615062AEFD35A7906F00F03BD
:1049D00042EA0324E9E700000C02002010B5244C51
:1049E0002DED028B217800293ED0616A411A0229FF
:1049F0003AD360629FED1F1A9FED1F8AA16AF5EE00
:104A0000008A29B1401A03D5DFED1C8A9FED1C8A6C
:104A1000D4ED010A94ED040A00F0C0F984ED040A13
:104A2000B0EE681AD4ED020A94ED050A00F0B6F96A
:104A300084ED050AB0EE481AD4ED030A94ED060A97
:104A400000F0ACF984ED060AB0EE402AD4ED081A65
:104A500094ED071AD4ED050A94ED040ABDEC028B1F
:104A6000BDE8104002F0D8BFBDEC028B10BD0000C5
:104A700024000020CDCCCC3D0AD7A33D8FC2F53C0D
:104A80000AD7A33C10B504281BD10F4C9FED0D0A8B
:104A900084ED070AB7EE080A84ED080A9FED0B0AB9
:104AA00084ED030A84ED020A00EE101AB8EEC00A83
:104AB00000F056F984ED010AFEF7C6F900F516700C
:104AC000A06210BD00007042240000200000000021
:104AD00010B504282DED028BDFED228A3FD1224C48
:104AE000B7EE000AC4ED078A84ED080A00EE101A3A
:104AF000B8EEC00A00F046F99FED1C1ADFED1C0A63
:104B000002F058FF10EE100A1A49B0EE408A8842AF
:104B100002DD9FED190A09E018EE100A17498842D4
:104B200002D99FED170A01E0B0EE680A84ED030A8E
:104B3000C4ED018A94ED020A124938EE400A10EEE3
:104B4000100A884204DC10EE100A0F49884204D98A
:104B5000FEF77AF900F51670A06284ED028ABDECCA
:104B6000028B10BD00000000240000200000344231
:104B7000000034C2CDCCCC3DCDCC4C3FCDCCCCBD57
:104B8000CDCC4CBF0000A0400000A0C070B50D46C9
:104B90002DED028B04289FED288A4AD1FB2002F0DC
:104BA000C1FFFC2002F0BEFFB0EE482AF0EE481A2A
:104BB000B0EE481AF0EE480AB0EE480A02F02CFFB8
:104BC000FE2002F0AFFF1D4C0120B7EE000A20705E
:104BD00084ED078A84ED080A00EE105AB8EEC00A88
:104BE00000F0D0F89FED161ADFED160A02F0E2FE93
:104BF00010EE100A1449884202DDDFED140A09E0C4
:104C000010EE100A1249884202D9DFED120A01E0C3
:104C1000F0EE480AC4ED030A84ED018A84ED020A2D
:104C200084ED058A84ED068AFEF70EF900F54870DA
:104C3000A062BDEC028B70BD0000000024000020CB
:104C400000003442000034C2CDCCCC3DCDCC4C3F32
:104C5000CDCCCCBDCDCC4CBF70B50D462DED028B6F
:104C600004284FD1FB2002F05DFFFC2002F05AFF28
:104C70009FED268AB0EE482AF0EE481AB0EE481AA8
:104C8000F0EE480AB0EE480A02F0C6FEFE2002F03E
:104C900049FF1F4C0120DFED1F2A2070C4ED072AB9
:104CA000F7EE082AC4ED082A1B4884ED038A84ED38
:104CB000028A816899B10088DFED180A00EE100AB7
:104CC0009FED171AB8EE400A20EE200AC0EE010A46
:104CD0009FED140A30EEC00A84ED040A01E084ED71
:104CE000048A00EE105A84ED058A84ED068AB8EE37
:104CF000C00A00F035F884ED010AFEF7A5F800F5CA
:104D00004870A062BDEC028B70BD00000000000086
:104D100024000020000070420C02002000003F43ED
:104D200000FF7F470000BF4210B5042813D1FD20CB
:104D300002F0F8FE084800219FED080A017080ED9E
:104D4000010A80ED020A80ED030A80ED040A80ED7D
:104D5000050A80ED060A10BD2400002000000000B6
:104D6000DFED060A9FED061A20EE200AC0EE010ACA
:104D7000B1EE080A20EE800A70470000DA0F4940C1
:104D800000003443DFED040A20EE200AF1EE080AA9
:104D900020EE200A704700005077D63DF0EE401A12
:104DA00031EE810AB4EEE00AF1EE10FA08D331EEEA
:104DB000C10AB4EEE00AF1EE10FA01DCB0EE600ACE
:104DC0007047FEE7F0B500230A24302537261F463A
:104DD00010E0B4EB107F02D905EB107C01E006EB8C
:104DE000107C01F813C001EB430C00015B1C8CF834
:104DF0000170DBB29342ECD3F0BD00001FB500217F
:104E00001548009101910291124A039102604FF4FA
:104E10008032C0E9012101240161047680F820106C
:104E20000E4AC0E90A21C461C16080F830104461B3
:104E3000FDF77FF908B1FCF773FF0620CDE9000408
:104E4000694605480294FDF7BFF8002801D0FCF739
:104E500067FF1FBD00200140EC0A00200100000F89
:104E6000104810B50E4901600321416000214FF444
:104E700000228160C0E903124FF4401242610176C2
:104E8000012242768176C17601774177FDF717FDE1
:104E9000002803D0BDE81040FCF742BF10BD000061
:104EA00000640040340B00202DE9F04F87B014213E
:104EB0006846FBF7DBFB44480024016841F0100121
:104EC0000160016801F010010591016841F04001A5
:104ED0000160016801F040010591016841F00201A3
:104EE0000160016801F002010591016841F00101D2
:104EF0000160016801F001010591016841F00801BC
:104F00000160016801F008010591016841F080012C
:104F10000160016801F080010591016841F0200104
:104F200001600068DFF8A48000F020004FF4C06545
:104F30000590002229464046FDF781FFDFF890905A
:104F400000223C214846FDF77AFFDFF888A04FF4A5
:104F50000066002231465046FDF771FFDFF878B059
:104F6000F700002239465846FDF769FF00950125F4
:104F7000CDE90154694640460394FDF75DFE3C20AF
:104F80000090CDE90154694648460394FDF754FE6C
:104F90000420CDE90004694640460294FDF74CFE2A
:104FA0000096CDE90154694650460394FDF744FE4E
:104FB0000097CDE90154694658460394FDF73CFE3D
:104FC00007B0BDE8F08F0000303802400004024016
:104FD000001C02400010024000140240104810B5AE
:104FE0000E4901604FF48271416000218160C1600F
:104FF0004FF400720161C0E905122822C0E90721BF
:10500000416281620A21C162FEF770FF002803D06D
:10501000BDE81040FCF784BE10BD00000030014028
:105020005C0B002010B588B01C216846FBF71EFB06
:105030001248114900240160B321C0E901144FF660
:10504000FF71C0E9031480218161FFF74DF908B1B8
:10505000FCF766FE6020CDE9000402940022694658
:1050600006480494FFF7DAF808B1FCF759FE034844
:10507000FFF7AAF808B010BD00180040B40B0020DC
:105080000C4810B50A4901604FF4E131416000213C
:1050900081600C22C160C0E904128161C161FFF727
:1050A0001FFB002803D0BDE81040FCF739BE10BD3F
:1050B000007800401C0E00200C4810B50A49016021
:1050C0004FF4E1314160002181600C22C160C0E9F0
:1050D00004128161C161FFF703FB002803D0BDE822
:1050E0001040FCF71DBE10BD007C0040640E002087
:1050F0000C4810B50A4901604FF4E13141600021CC
:1051000081600C22C160C0E904128161C161FFF7B6
:10511000E7FA002803D0BDE81040FCF701BE10BD3F
:1051200000140140AC0E002010B500220F491048B9
:1051300001F02EFA08B1FCF7F3FD0E490C4801F01E
:1051400045FC08B1FCF7ECFD0B49094800F0C0FF35
:1051500008B1FCF7E5FD064801F0BCFC002803D0CF
:10516000BDE81040FCF7DCBD10BD0000940000203D
:10517000F40E002060010020E4000020FEE77047EC
:105180000148FEF74DB80000F01300202DE9F04172
:10519000066805460C46306C06EB4411D1F8083B16
:1051A00095F806C04FF400474FF0200E05F29C42E0
:1051B000BCF1010F08D0DFF898C0604538D1180461
:1051C00031D5C1F8087B3FE0224E5FEA037C04D56D
:1051D000B04239D91804F4D436E05FEA836C02D5C2
:1051E000C1F808EB30E013F0280F2DD1B04201D9FF
:1051F0001804E6D404EBC40005EB8000D1F8101BC2
:10520000D0F87432C1F31201591AC0F8681200F5CF
:105210001570ACB903691BB1C2681144C1600FE0DD
:10522000012128680AE098060AD5C1F808EB07E0D2
:1052300034B9D5F8640218B90021304601F0C8FF2E
:10524000E1B22846FDF7D4FE0020BDE8F081000061
:105250000A31544F0A30544F2DE9F84F0E4601EBF6
:10526000C60100EB81048146D0F80080D4E9091022
:105270001434884202D90120BDE8F88F081AA168C9
:10528000814200D20846C01C870808EB461A15E088
:10529000451AA068A84200D20546E81C870899F87C
:1052A00006000090ABB2F2B24046E16802F022FB89
:1052B000E0682844E060606928446061DAF8180911
:1052C00080B2B84205D3D4E90401814201D200285A
:1052D000DED1D4E90401884208D806F00F0101208C
:1052E0008840D8F834188143C8F834180020C3E740
:1052F00070470000F8B515460E460B46009204466E
:105300000122022100F02CF8A0B9134813490068CB
:10531000B0FBF1F04FF47A71484300906068B0F54B
:10532000827F0DD13346002280212046009500F077
:1053300017F870B1606D40F0200060650320F8BD83
:10534000009830B1401E009020688068C04300067D
:10535000F6D50020F8BD00000401002000366E01E3
:105360002DE9F8431E46914688460446089DFDF700
:105370006BFD401B351AFDF767FD074626480068A0
:10538000C0F3CB3068430AE0701C09D0FDF75CFD28
:10539000C01BA8420FD275B10098B8B3401E009050
:1053A0002068816838EA010033D000204845EBD1FD
:1053B0000020BDE8F8832068416821F0E0014160E9
:1053C0006068B0F5827F0BD1A068B0F5004F02D0C5
:1053D000B0F5806F04D12068016821F040010160C0
:1053E000A06AB0F5005F09D12068016821F400517E
:1053F00001602068016841F400510160012084F8D7
:105400005100002084F850000320D2E7FFE7002578
:10541000C6E70120CAE700000401002070470178B8
:10542000407841EA00207047FDF714BD30B593B0D5
:1054300030216846FBF71AF914210CA8FBF716F97E
:105440001C480025016841F080510160006800F0AF
:10545000805011901848016841F440410160006893
:10546000022400F4404011900120009000040190BB
:105470008001CDE9064006200890A820CDE9090466
:1054800007200B906846FEF785FB00B1FEE70CA9EC
:105490000F2081E831004FF4A0500F904FF480505E
:1054A000109005210CA8FEF783FA002800D0FEE733
:1054B00013B030BD40380240007000401048016811
:1054C00041F4700101600F48016841F00101016081
:1054D0000C4A00210832116002680B4B1A4002602E
:1054E000031D0A4A1A60026822F4802202600548FD
:1054F0000C3001600249580680390860704700008E
:1055000088ED00E000380240FFFFF6FE1030002476
:10551000F0B50268274D284E284FDFF8A4C0294B6C
:105520004FF0804EA84209D0704507D0B04205D058
:10553000B84203D0604501D0984203D122F07004F4
:105540004A682243A8421BD0704519D0B04217D0F8
:10555000B84215D0604513D0984211D01A4CA042E1
:105560000ED01A4CA0420BD0194CA04208D0194CB6
:10557000A04205D0184CA04202D0184CA04203D142
:1055800022F44074CA6822434C6922F0800222430C
:105590008C68C4620C688462A84201D0984201D130
:1055A00009690163016841F0040101600121416161
:1055B0000260F0BD0000014000040040000800400F
:1055C000000C004000040140004001400044014044
:1055D0000048014000180040001C0040002000402E
:1055E00010B501F01F010123046A8B409C43046243
:1055F000036A8A401343036210BD0000F0B5026ADB
:10560000036A23F00103036243688469114E24F0A6
:1056100073050C68104F2C4322F002058A682A4358
:10562000B04201D0B84205D122F00805CA682A4329
:1056300022F00402B04201D0B84205D14D6923F4F2
:1056400040731D438B692B43436084614968416308
:105650000262F0BD0000014000040140F0B5026AA2
:10566000036A23F010030362436884690D6824F41D
:10567000E64444EA05248D6822F0200242EA05123D
:105680000F4D104EA84201D0B04206D1CF6822F093
:10569000800242EA071222F04002A84201D0B04242
:1056A00007D14D6923F4406343EA85038D6943EADA
:1056B000850343608461496881630262F0BD000034
:1056C0000000014000040140F0B5026A036A23F4BF
:1056D000807303624368C46922F4007224F0730586
:1056E0000C68124E2C438D6842EA05220E4DA842EA
:1056F00001D0B04206D1CF6822F4006242EA07220C
:1057000022F48062A84201D0B04207D14D6923F44F
:10571000405343EA05138D6943EA05134360C461AE
:105720004968C1630262F0BD00000140000401400D
:1057300030B5036A026A22F4805202624268C46988
:105740000D6824F4E64444EA05248D6823F40053EC
:1057500043EA0533084DA84202D0084DA84204D1BF
:105760004D6922F4804242EA85124260C461496870
:105770000164036230BD00000000014000040140EC
:105780000148FEF76DBE0000640E002070B5094CA4
:105790004FF400712578E08800F0C6FA218988422C
:1057A00003D00549E2888D54E080BDE8704000F0E8
:1057B00005B8000064000020FC0B00200122024913
:1057C0000248FFF747B8000064000020640E002084
:1057D00010B5806B0021C185FEF732FE10BD016857
:1057E0000C3151E8002F22F4907241E80023002B85
:1057F000F5D10168143151E8002F22F0010241E88F
:105800000023002BF5D1016B012909D101680C316E
:1058100051E8002F22F0100241E80023002BF5D1BF
:10582000202180F8421000210163704708B590F8EC
:105830004210222901D0022008BD81684FF4805314
:10584000994201D1026922B1826A99421BD049B1C1
:105850000AE00268816A5268C2F308020A80816A1B
:10586000891C08E0016971B10168496801F07F0194
:105870001170816A491C8162C18D491E0904090C9D
:10588000C18503D01BE001684968F1E70168CA6877
:1058900022F02002CA600168CA6822F48072CA60DD
:1058A00001684A6922F001024A61202180F8421011
:1058B00000214163026B012A03D0FEF7D9FF0020CB
:1058C00008BD016301680C3151E8002F22F010027D
:1058D00041E80023002BF5D101680A68D20602D501
:1058E0000A6849680091818DFEF7A8FDE7E700008E
:1058F00070B5044600680169E26821F44051114323
:105900000161A1682069E2690143606910430143B4
:105910002068C26849F20C639A430A43C260206857
:105920004169A26921F44071114341613149206804
:10593000884202D03049884202D1FEF7E9F801E0FE
:10594000FEF7D6F8E2690023192164253226B2F564
:10595000004F626828D0A0FB0101930F9200FAF774
:10596000C7FC0146B0FBF5F06FF01802504301EBA5
:10597000800006EB0010B0FBF5F000F0F002B1FB88
:10598000F5F002EB0012B1FBF5F06FF0180358438D
:1059900001EB800006EB0010B0FBF5F000F00F000B
:1059A00021681044886070BDA0FB010192185B4122
:1059B000FAF79EFC0146B0FBF5F00201B1FBF5F0F1
:1059C0006FF01803584301EB800006EBC000B0FBFA
:1059D000F5F000F0F80002EB4002B1FBF5F058439F
:1059E00001EB800006EBC000B0FBF5F000F0070013
:1059F000D6E700000010014000140140816282855A
:105A0000C28500214164222180F84210016921B140
:105A10000168CA6842F48072CA6001684A6942F04B
:105A200001024A610068C16841F02001C1600020A4
:105A300070472DE9F8431F4690460D460446089EE0
:105A400023E0701C21D0FDF7FFF9C01BB0421AD82B
:105A5000CEB12068C168490717D5802D15D0402DDB
:105A600013D00168C94309070FD4016800254068B5
:105A700000902046FFF7B3FE0820606484F8405091
:105A80000120BDE8F8830320FBE72068006835EAC1
:105A9000000004D000204045D3D00020F1E70120D1
:105AA000F9E700000248C178C068FBF7CDBF0000ED
:105AB0005000002010B5094C0120207000206060CB
:105AC0006070A060A070FBF787FFE070FBF78AFFB3
:105AD000E060BDE81040FFF7E5BF00005000002087
